:0A14F50000010202030304040505D0
:100B6E00E4F565F564F563F562C209C206C208C212
:100B7E0007121F221207BA7E167F008E0A8F0B7580
:100B8E00121675131275081675091C751016751147
:100B9E005175161675177FEE54E07003020CB5757D
:100BAE0066007567808E688F69C374A99FFF74167F
:100BBE009ECF2402CF3400FEE48F618E60F55FF588
:100BCE005EF55DF55CF55BF55AAF61AE60AD5FACA1
:100BDE005EAB5DAA5CA95BA85AC3120E765026E5E1
:100BEE0067255DF582E566355CF58374CDF0E55DD0
:100BFE002401F55DE4355CF55CE4355BF55BE435CD
:100C0E005AF55A80C4E4F55DF55CF55BF55AAF61B3
:100C1E00AE60AD5FAC5EAB5DAA5CA95BA85AC312B9
:100C2E000E765031AE5CAF5DE5692FF582E5683E1C
:100C3E00F583E0FDE5672FF582E5663EF583EDF081
:100C4E00EF2401F55DE43EF55CE4355BF55BE435E0
:100C5E005AF55A80B985660A85670B74002480FFA1
:100C6E00741634FFFEC3E5139FF513E5129EF512BD
:100C7E00C3E50D9FF50DE50C9EF50CC3E50F9FF535
:100C8E000FE50E9EF50EC3E5099FF509E5089EF5E5
:100C9E0008C3E5119FF511E5109EF510C3E5179FEA
:100CAE00F517E5169EF516D2E843D82090E668E0D3
:100CBE004409F090E65CE0443DF0D2AF90E680E06F
:100CCE0020E105D20A121C2590E680E054F7F0537D
:100CDE008EF8C209300705120521C2073009291204
:100CEE0015FE5024C209121E0520061690E682E05B
:100CFE0030E704E020E1EF90E682E030E604E02009
:0D0D0E00E0E4121CB21220E012118A80C72E
:1005210090E6B9E070030205FC1470030206A524ED
:10053100FE700302073A24FB70030205F6147003F0
:100541000205F01470030205E41470030205EA24A5
:100551000560030207A61220E240030207B290E6FB
:10056100BBE024FE602C14604724FD60161460314A
:1005710024067065E50A90E6B3F0E50B90E6B4F069
:100581000207B2E51290E6B3F0E51390E6B4F0028B
:1005910007B2E50C90E6B3F0E50D90E6B4F0020782
:1005A100B2E50E90E6B3F0E50F90E6B4F00207B2C3
:1005B10090E6BAE0FF121CDEAA06A9077B01EA4910
:1005C100600DEE90E6B3F0EF90E6B4F00207B29062
:1005D100E6A0E04401F00207B290E6A0E04401F099
:1005E1000207B2121FE60207B21220BA0207B212C4
:1005F10019740207B2121FD40207B21220E4400399
:100601000207B290E6B8E0247F602B14603C24021C
:10061100600302069BA206E433FF25E0FFA208E483
:10062100334F90E740F0E4A3F090E68AF090E68B38
:100631007402F00207B2E490E740F0A3F090E68A7A
:10064100F090E68B7402F00207B290E6BCE0547EB3
:10065100FF7E00E0D3948040067C007D0180047C15
:10066100007D00EC4EFEED4F24F5F58274143EF54D
:1006710083E493FF3395E0FEEF24A1FFEE34E68F90
:1006810082F583E0540190E740F0E4A3F090E68A1C
:10069100F090E68B7402F00207B290E6A0E044010C
:1006A100F00207B21220E640030207B290E6B8E07A
:1006B10024FE601D240260030207B290E6BAE0B492
:1006C1000105C2060207B290E6A0E04401F002076C
:1006D100B290E6BAE0705990E6BCE0547EFF7E002D
:1006E100E0D3948040067C007D0180047C007D0085
:1006F100EC4EFEED4F24F5F58274143EF583E49340
:10070100FF3395E0FEEF24A1FFEE34E68F82F583FF
:10071100E054FEF090E6BCE05480FF131313541F25
:10072100FFE0540F2F90E683F0E04420F00207B27F
:1007310090E6A0E04401F080781220E8507390E642
:10074100B8E024FE60202402706790E6BAE0B401AC
:1007510004D206805C90E6BAE06402605490E6A0A0
:10076100E04401F0804B90E6BCE0547EFF7E00E067
:10077100D3948040067C007D0180047C007D00ECE8
:100781004EFEED4F24F5F58274143EF583E493FF9C
:100791003395E0FEEF24A1FFEE34E68F82F583E08E
:1007A1004401F0800C120080500790E6A0E0440163
:0807B100F090E6A0E04480F0A6
:0107B900221D
:030033000220D0D8
:0420D00053D8EF32C0
:101F2200758CE0758AC0E58954F04401F589758E97
:081F320003D28CD2A9D2AF2228
:03000B000216AB2F
:1016AB00C0E0C0F0C083C082C0D075D000C000C005
:1016BB0001C002C003C004C005C006C007758CE0A2
:1016CB00758AC0D28CE47F607EEAFDFCAB55AA54D0
:1016DB00A953A852C3120E765019AF55AE54AD5341
:1016EB00AC52EF2401F555E43EF554E43DF553E4DB
:1016FB003CF552E47F01FEFDFCAB55AA54A953A85F
:10170B0052C3120E767008E5A054F02534F5A0E50F
:10171B002A2401FFE43529FEE4FCFDAB55AA54A9AC
:10172B0053A852C3120E76700553A0F0C28CD0078B
:10173B00D006D005D004D003D002D001D000D0D039
:09174B00D082D083D0F0D0E0324E
:03003B0002190C9B
:10190C00C0E0C083C082C0D075D000C006C0073014
:10191C00C041C2C085C114052EE52E7002052DD321
:10192C00E52E94F4E52D648094814006752D0075A8
:10193C002E00AE2DAF2EEE90F800F0AE2DAF2EEFA8
:10194C00A3F0AE2DAF2E74012FF58274F83EF58303
:10195C00E514F030C105C2C185C114D007D006D042
:08196C00D0D082D083D0E0321C
:030023000219D3EC
:1019D300C0E0C083C082C0D075D000C00730983645
:1019E300C298859915052CE52C7002052BD3E52C9F
:1019F300940EE52B648094804006752B00752C00B3
:101A0300AF2C90E7F0EFF0AF2C74F02FF582E434B5
:101A1300E7F583E515F0D007D0D0D082D083D0E0AE
:011A23003290
:1016000012010002000000401816118300000102C0
:1016100000010A0600020000004001000902350036
:1016200001010080FA0904000005FF000000070521
:101630000102400000070582020002000705810246
:1016400040000007058602000200070508020002AC
:101650000009022E0001010080FA0904000004FFC5
:10166000000000070501024000000705820240005B
:101670000007050202000200070581024000000485
:1016800003090410035100480059002D0043004392
:101690000044001603490043003800330030003096
:0B16A0000020002000200020000000BF
:100FC80060802800030A03030202030700000002EE
:100FD800000002000A2B0B1311151111000000006C
:100FE8000000003F020A0303030303070000000296
:100FF800000002000A2B130B11151111000000004C
:101008000000003F032D0303030303070000000251
:10101800000002000A2B0B1311151111000000002B
:101028000000003F030A0A0A0A0A0A070000000231
:10103800000002000A2B130B11151111000000000B
:101048000000003F60242887000000000000000026
:101058000000000000000000000000000000000088
:101068000000000000000000000000004728808009
:06107800000011CA4E0049
:1013100090E60174CAF090E6F574FFF0902880E042
:1013200090E6F3F0902881E090E6C3F0902882E008
:1013300090E6C1F0902883E090E6C2F0902885E026
:1013400090E6C0F0902886E090E6F4F075AF077460
:1013500028F59A7400F59B759DE4E4F59EFF90E6F0
:101360007BE090E67CF00FBF80F490E67174FFF0B4
:10137000F5B490E672E04480F043B680000000E4EB
:1013800090E6C4F000000090E6C5F0902887E09059
:10139000E6C6F0902888E090E6C7F0902889E090B3
:1013A000E6C8F090288AE090E6C9F090288BE0909B
:1013B000E6CAF090288CE090E6CBF090288DE09083
:0B13C000E6CCF090288EE090E6CDF027
:0113CB0022FF
:03004300021500A3
:0300530002150093
:10150000021F3A00021F9700021F8100021F5200B3
:10151000021B5300021A67000214FF000220EA00B7
:101520000220EB000220EC00021AA4000209B6001F
:101530000220ED000220EE00021A24000210A90091
:101540000220EF000220EA000220F0000220F10059
:101550000220F2000220F3000220F4000220F50035
:101560000220F6000220EA000220EA000220EA003F
:101570000220F7000220F8000220F9000220FA0001
:101580000220FB000220FC000220FD000220FE00E1
:101590000220FF00022100000221010002210200BE
:1015A000022103000221040002210500022106009D
:0815B0000221070002210800DE
:101CB20090E682E030E004E020E60B90E682E0303D
:101CC200E119E030E71590E680E04401F07F147EF0
:0C1CD200001215B890E680E054FEF022ED
:101E050090E682E044C0F090E681F043870100004F
:041E150000000022A7
:101C2500300A0990E680E0440AF0800790E680E0FB
:101C35004408F07FDC7E051215B890E65D74FFF070
:0F1C450090E65FF05391EF90E680E054F7F022C5
:021CDE00A90754
:101CE000AE16AF178F828E83A3E064037017AD0129
:101CF00019ED7001228F828E83E07C002FFDEC3E77
:091D0000FEAF0580DF7E007F00CC
:011D090022B7
:1015B8008E6E8F6F90E600E054187012E56F24016C
:1015C800FFE4356EC313F56EEF13F56F801590E6E3
:1015D80000E05418FFBF100BE56F25E0F56FE56ECE
:1015E80033F56EE56F156FAE6E7002156E4E6005C1
:0615F800121E1980EE2214
:101E19007400F58690FDA57C05A3E582458370F9DC
:011E29002296
:10107E00C18202311040C100014800C105C1040403
:10108E004E00000000014500012500043F00000055
:0A109E0000043700000000013500D7
:1007BA0090E600E054E74410F000000000000090CA
:1007CA00E61074A0F000000090E60B7401F090E6C9
:1007DA001274E0F0000000E490E613F000000090CC
:1007EA00E61474E2F000000090E61574A0F0000030
:1007FA000090E6D27402F090E6047480F0000000E3
:10080A007402F00000007406F00000007408F000A2
:10081A000000E4F000000012131090E6187408F0CB
:10082A0000000090E619F000000090E61AF00000BF
:10083A000090E61BF0000000E490E671F075B4FF4A
:10084A0090E672F075B67F75B1FF90E670F075B2FA
:10085A00FF75B5FFC28CD2A053A0FD1220CA90E644
:10086A001074A0F000000090E611F000000090E67D
:10087A005EE04408F0000000E490E68DF00000001D
:10088A0090E65EE04404F0000000E490E7C0F090D7
:10089A00E7C4F0A3F0A3F0A3F090E7F0F090E68F9E
:1008AA007440F000000090E65EE04440F000000072
:1008BA00E4FFFE7E027F0090F800E4F0A3DFFCDE96
:1008CA00FA90E6987402F0000000E490E699F000CD
:1008DA000000FEFF7E027F0090F800E4F0A3DFFC38
:1008EA00DEFA90E65EE04480F0000000E490E69CC8
:1008FA00F000000090E69DF00000007F9AFE1220B2
:10090A004E7527007528B4754901754A90753110DE
:10091A007532B8754C06754D2C1220C290E67AE0F5
:10092A0054FEF0E4FD7F90121FF87F647E001215DA
:10093A00B87DFF7F42121FF87F647E001215B87DD2
:10094A00827F4E121FF87536FF43B101E4F53D90E0
:10095A00E782E536F090E781E53DF0121F6AE4F59B
:10096A002BF52C121DB6E4F52DF52E1220CA121EF7
:10097A00727F887E13121E31121E727F887E1312B6
:10098A001E31121E727F887E13121E3112203712F8
:10099A0017F47F55121AE07F887E13121E31D2F99E
:0B09AA00C2F8E4F54590E7C0E545F019
:0109B500221F
:0E201C00EF2401FBE43EFA7D047F48021ECF54
:10148500E53DC313FFC374809FF56EE53DD394001E
:1014950040067536FF43B101E53D700353B1FE7E4D
:1014A500297F0B12201C90290CE090E7C1F09029B0
:1014B5000DE090E7C2F09028EBE536F07A287BEB5B
:1014C5007D017F21121EEB9028EB7402F0A374803E
:1014D500F07A287BEB7D027F28121EEBE49028EB47
:1014E500F0A3E56EF07A287BEB7D027F28021EEBE8
:10118A00E5512401F551E43550F550E4354FF54F5A
:10119A00E4354EF54EE47FE87E03FDFCAB51AA50E0
:1011AA00A94FA84EC3120E76700F9028EBF07A283A
:1011BA007BEB7D017F48121EEB7FA07E867D017C42
:1011CA0000AB51AA50A94FA84EC3120E76700E1248
:1011DA00148590E6907402F0E490E691F07F407EE8
:1011EA000D7D037C00AB51AA50A94FA84ED3120E15
:1011FA0076400CE4F551F550F54FF54E121EB2301B
:10120A00014075450190E7C0E545F0E5B130E703D7
:10121A002005F812124DC201E4F54590E7C0E545F4
:10122A00F0121E727F887E13121E31121E727F8880
:10123A007E13121E31121E727F887E13121E311205
:03124A0020372228
:0215FE00D322F6
:0220E000D32209
:0220E200D32207
:1019740090E680E030E73A00000090E6207402F040
:10198400000000E490E621F000000090E6247402D8
:10199400F0000000E490E625F000000090E62674D4
:1019A40002F0000000E490E627F0000000D202807C
:1019B40016000000E490E620F000000090E6217498
:0F19C40040F0000000C20290E6BAE0F546D322E0
:101FD40090E740E546F0E490E68AF090E68B04F062
:021FE400D32206
:0820BA0090E6BAE0F526D322FE
:101FE60090E740E526F0E490E68AF090E68B04F070
:021FF600D322F4
:0220E400D32205
:0220E600D32203
:0220E800D32201
:10008000E4F56AF56B90E6B9E0120E9A00B1B300A0
:10009000E9B5026CB602A4BB02F5BC03A2C1035AC7
:1000A000C20420C5043FC60474CA04B5CB000005D1
:1000B0001DE490E68AF090E68BF090E6A0E020E167
:1000C000F990E68BE0F56AE4F5B390E60174CAF0C6
:1000D000D20100000090E6047480F0000000740279
:1000E000F0000000E4F002051FE490E68AF090E6DC
:1000F0008BF090E6A0E020E1F990E68BE0F56AD382
:10010000943F4024E4F56B7440256BF582E434E7BA
:10011000F583E0FF74AB256BF582E43428F583EFBB
:10012000F0056BE56BB440DF7F8A7E0012204E90B5
:1001300028ABE0FF7E001220579028ABE0FF7E0046
:100140001220609028ABE0FF7E001220699028AC5E
:10015000E075F004A4FFAEF01220729028ACE075B8
:10016000F004A4FFAEF012207B9028ACE075F00400
:10017000A4FFAEF01220849028B0E0C39402501681
:100180009028CCE0700890E6C0744EF0801C90E699
:10019000C0749CF080149028CCE0700890E6C07485
:1001A0009FF0800690E6C0749DF09028CEE0F53E6A
:1001B0009028CBE0F53C9028CFE0F5479028D9E097
:1001C000F53BA3E0FEA3E07C002400F524EC3EF523
:1001D000239028B1E0F533E533700375330190289F
:1001E000B6E0FEA3E07C002400F528EC3EF527A352
:1001F000E0FEA3E02400F54AEC3EF5499028B2E089
:10020000FEA3E02400F532EC3EF531A3E0FEA3E0CE
:100210002400F54DEC3EF54C9028BCE0FEA3E02414
:1002200000F544EC3EF5439028BAE0FEA3E024003C
:10023000F530EC3EF52F9028E0E0540FF535E4FD65
:100240007F90121FF89028ACE0FCA3E0FDA3E0FE35
:10025000A3E0F5428E418D408C3FE542F542E541F9
:10026000F541E540F540E4F53F02051FE4F56B7408
:10027000AB256BF582E43428F583E0FF7440256BF1
:10028000F582E434E7F583EFF0056BE56BB440DF0E
:10029000000000E490E68AF000000090E68B7440D5
:1002A000F002051FE490E68AF090E68BF090E6A05D
:1002B000E020E1F978EB7C287D017B017AE679BCCE
:1002C0007E007F01120DEB90E6BEE0FF7E0078EC31
:1002D0007C287D017B017AE77940120DEB90E6BA2C
:1002E000E0FFC313FF90E6BEE004FD7A287BEB122B
:1002F0001EEB02051FE490E68AF090E68BF090E694
:10030000A0E020E1F978EB7C287D017B017AE67999
:10031000BD7E007F01120DEB78EC7C287D017B0116
:100320007AE679BC7E007F01120DEB90E6BEE0FF1D
:100330007E0078ED7C287D017B017AE77940120D03
:10034000EB90E6BAE0FFC313FF90E6BEE02402FDA7
:100350007A287BEB121EEB02051F90E74074EAF04F
:10036000A37403F0A3740CF0A37426F0A37407F035
:10037000A374EEF0A37401F0A37403F0A37453F01C
:10038000300205E4A3F0800690E74974FFF0000016
:1003900000E490E68AF000000090E68B740AF00218
:1003A000051FE490E68AF090E68BF090E6A0E0204E
:1003B000E1F990E68BE0F56AC298D394005003020D
:1003C000051F90E740E0940A5007E02430FF122018
:1003D0002A90E740E0B40A057F6112202A90E740A6
:1003E000E0B40B057F6212202A90E740E0B40C05D0
:1003F0007F6312202A90E740E0B40D057F6412204D
:100400002A90E740E0B40E057F6512202A90E7406D
:10041000E0640F600302051F7F6612202A02051F99
:100420007AE77B407D047F48121ECF000000E490F5
:10043000E68AF000000090E68B7404F002051FE4E9
:1004400090E68AF090E68BF090E6A0E020E1F9904B
:10045000E68BE0F56AD39401500302051F90E74153
:10046000E0FD7F42121FF890E740E0FD7F4E121F33
:10047000F802051F90E6BCE090290BF07A297B0B6F
:100480007D017F50121EEB7A297B0B7D017F50127C
:100490001EEB90E6BEE0FD7AE77B407F50121ECF58
:1004A000E490E68AF000000090E6BEE090E68BF073
:1004B000000000806AE490E68AF000000090E68B7D
:1004C000F000000090E6A0E020E1F990E6BCE0D367
:1004D0009407404B78EB7C287D017B017AE679BC60
:1004E0007E007F01120DEB90E6BEE0FF7E0078EC0F
:1004F0007C287D017B017AE77940120DEB90E6BE06
:10050000E004FD7A287BEB7F50121EEB90E6BEE004
:1005100004FD7A287BEB7F50121EEB8002D322C3AE
:0105200022B8
:101F3A00C0E0C083C082D2075391EF90E65D74017E
:081F4A00F0D082D083D0E03218
:101F8100C0E0C083C0825391EF90E65D7404F0D04D
:061F910082D083D0E03293
:101F9700C0E0C083C0825391EF90E65D7402F0D039
:061FA70082D083D0E0327D
:101B5300C0E0C083C08285100C85110D850D828580
:101B63000C83A37402F085080E85090F850F828507
:101B73000E83A37407F05391EF90E65D7410F0D0D9
:061B830082D083D0E032A5
:101F5200C0E0C083C082D2095391EF90E65D74085D
:081F6200F0D082D083D0E03200
:101A6700C0E0C083C08290E680E030E72085080CA4
:101A770085090D850D82850C83A37402F085100EF0
:101A870085110F850F82850E83A37407F05391EF9D
:0D1A970090E65D7420F0D082D083D0E03264
:0114FF0032BA
:0120EA0032C3
:0120EB0032C2
:0120EC0032C1
:101AA400C0E0C083C08290E65EE054FBF00000001A
:101AB40090E68F7440F0000000752B00752C0090A8
:101AC400E7F0E4F05391EF90E65FE04404F090E631
:0C1AD4005EE04404F0D082D083D0E03209
:1009B600C0E0C0F0C083C082C0D075D000C000C007
:0D09C60001C002C003C004C005C006C00788
:1009D30090E65EE054F7F090E6A1E020E1F990E7BD
:1009E30080E0FF120E9A0A08000A0E010A1D300A5F
:1009F3004D310A91320ACF330B00340B2BFE0B35EA
:100A0300FF00000B3A752200020B3A90E782E0F5F3
:100A13003690E781E0F53D020B3A755600755701B4
:100A230090E68DE0FFC3E5579F7480F865569840C4
:100A330003020B3A74802557F582E434E7121F1141
:100A43000557E55770DA055680D690E781E07006C2
:100A5300758DB2020B3A90E781E0B40106758D649F
:100A6300020B3A90E781E0B40206758DD9020B3A86
:100A730090E781E0B40306758DE6020B3A90E781B7
:100A8300E064046003020B3A758DF3020B3A90E7BE
:100A930081E07006121E72020B3A90E781E0B40106
:100AA30006121E4E020B3A90E781E0B40206121DB5
:100AB30036020B3A90E781E0B40305121E92807769
:100AC30090E781E0F47070122037806B75560075E3
:100AD300570190E68DE0FFC3E5579F7480F8655694
:100AE30098505474802557F582E434E7F583E0FF8A
:100AF30012202A0557E55770D9055680D590E7810E
:100B0300E0F46011E024B0FF121FC1E4FF121FC123
:100B13007F10121FC190E7817440F07AE77B817DDB
:100B2300217F3C121EEB800F90E781E024FF9205AA
:100B33008005752200D20300000090E68DE4F05397
:100B430091EF90E65FE04408F090E65EE04408F041
:100B5300D007D006D005D004D003D002D001D000F6
:0B0B6300D0D0D082D083D0F0D0E032A0
:0120ED0032C0
:0120EE0032BF
:101A2400C0E0C083C08290E65EE054BFF0000000D6
:101A340090E6987402F000000090E699E4F000004B
:101A440000F52DF52E90F800F0A3F05391EF90E6F9
:101A54005FE04440F090E65EE04440F0D082D08302
:031A6400D0E0329D
:1010A900C0E0C0F0C083C082C0D075D000C000C00D
:0D10B90001C002C003C004C005C006C0078E
:1010C60090E65EE0547FF090E6A6E020E1F990E637
:1010D6009CE0FE90E69DE07C002400F557EC3EF592
:1010E60056E55764054556703F90FC00E0B4EE1493
:1010F600A3E0B4440FA3E0B4880AA3E07006A3E01B
:1011060064336048755800755900C3E5599557E52D
:10111600566480F8E5586480985031121F070559C7
:10112600E55970E6055880E2755800755900C3E523
:10113600599557E5566480F8E558648098500D1225
:101146001F070559E55970E6055880E20000009032
:10115600E69CE4F090E69DF05391EF90E65FE04464
:0911660080F090E65EE04480F0A8
:10116F00D007D006D005D004D003D002D001D000D4
:0B117F00D0D0D082D083D0F0D0E0327E
:0120EF0032BE
:0120F00032BD
:0120F10032BC
:0120F20032BB
:0120F30032BA
:0120F40032B9
:0120F50032B8
:0120F60032B7
:0120F70032B6
:0120F80032B5
:0120F90032B4
:0120FA0032B3
:0120FB0032B2
:0120FC0032B1
:0120FD0032B0
:0120FE0032AF
:0120FF0032AE
:0121000032AC
:0121010032AB
:0121020032AA
:0121030032A9
:0121040032A8
:0121050032A7
:0121060032A6
:0121070032A5
:0121080032A4
:061754008F6C8C6D8D6EA0
:10175A00536C07121E2AE4F56FF570C37402957074
:10176A00FFE56CA807088002C313D8FC30E00543E4
:10177A00A020800353A0DF121E2D43A010121E2D9D
:10178A0053A0EF121E2D0570E5707002056FC39409
:10179A0003E56F6480948040C2E4F56FF570C3740A
:1017AA00099570FFE56EAE6DA807088005CEC313D4
:1017BA00CE13D8F930E00543A020800353A0DF12EE
:1017CA001E2D43A010121E2D53A0EF121E2D0570C0
:1017DA00E5707002056FC3940AE56F6480948040D7
:0A17EA00BD43A040121E2D021E2A6E
:09204E00AD07AC06E4FF021754D3
:09205700AD07AC067F040217542A
:09206000AD07AC067F0502175420
:09206900AD07AC067F0602175416
:09207200AD07AC067F0102175412
:09207B00AD07AC067F0202175408
:09208400AD07AC067F03021754FE
:101FF8009028EBEDF0EFC313FF7A287BEB7D01020D
:022008001EEBCD
:101DDE009028EB7402F0A37480F07A287BEB7D02DE
:101DEE007F28121EEBE49028EBF0A3F07A287BEB11
:071DFE007D027F28021EEBAD
:101FC100E49028EBF0A3EFF07A287BEB7D027F3CD5
:031FD100021EEB02
:101FAD009028EB7440F0A3EFF07A287BEB7D027F55
:041FBD003C021EEBD9
:1017F4007FAE121FC17F04121FC17F10121FC17F51
:1018040040121FC17FB0121FC17F81121FC17F8090
:10181400121FC17FA1121FC17FA6121FC17FA81270
:101824001FC17F3F121FC17FAD121FC17F8B121FCB
:10183400C17F30121FC17FC8121FC17FD3121FC1C5
:10184400E4FF121FC17FD5121FC17F80121FC17F09
:10185400D9121FC17F22121FC17FDA121FC17F025A
:10186400121FC17F8D121FC17F14121FC17FDB1293
:0C1874001FC17F40121FC17FAF021FC1C7
:021AE0008F6A0B
:101AE200E4FF121FC17F10121FC1E4F56CE56C24E4
:101AF200B6FF121FC1E4FF121FC17F10121FC1E403
:101B0200F56BAF6A121FAD056BE56BC3946040F2D3
:091B1200056CE56CC3940240D49B
:011B1B0022A7
:071E2A0053A0BF7F0A7E00F8
:101E3100AD07AC06ED7803C333CE33CED8F9FDAC94
:0D1E410006ED4C6007ED1D70F81C80F522C9
:0320D400C28222A3
:0320D700D2822290
:0320DA00C285229A
:0320DD00D2852287
:0620CA001220D70220DD08
:101EB2001220D47F027E00121E311220DA1220D7A5
:0D1EC2007E00121E311220DD7E00021E3156
:10200A00E4FBFA121EB20BBB00010ABA0DF5BBF6CD
:01201A00F2D3
:01201B0022A2
:0A204400121E4E12203743B1402255
:09208D0053B1BF121E920220376C
:1013CC0085423A854139854038853F37E53CB40143
:1013DC0002C2A0122044E53E600302147175220182
:1013EC00E47FE87E03FDFCAB3AAA39A938A837C3E1
:1013FC00120E764062E5226401705C7FDD7E031282
:10140C0015B8121485E53A2418F53AE53934FCF58B
:10141C0039E53834FFF538E53734FFF537E4FFFEAE
:10142C00FDE537FC7818120E8790E7C4EFF0E4FF67
:10143C00FEE538FDE4FC7810120E87A3EFF0E4FF14
:10144C00E539FEE4FDFC7808120E87A3EFF0E53ACF
:10145C00FFE4A3EFF08089E522B40112AE39AF3A74
:10146C001215B88009752201E522640160FA122078
:09147C008DE53CB40102D2A0226E
:101D0A00AD07AC06D3ED9400EC9400401E00000031
:101D1A00EE90E6D0F0000000ED90E6D1F000000071
:0C1D2A0075BB04000000E5BB30E7FB22A5
:081B1C008C6E8D6FAB07AA0669
:101B2400E4FDFCC3ED956FEC956E5022EA90E6D08F
:101B3400F0000000EB90E6D1F000000075BB05005A
:0E1B44000000E5BB30E7FB0DBD00010C80D5B5
:011B52002270
:101D8D00AD07AC06000000ED25E0EC3390E6D0F099
:101D9D00000000ED25E090E6D1F000000075BB04D9
:091DAD00000000E5BB30E7FB2259
:10124D00C20312200A75450290E7C0E545F012135E
:10125D00CC75450390E7C0E545F030030302130F4D
:10126D00E4F56CF56DC3E56D9528E56C9527500D8E
:10127D00121EB2056DE56D70EC056C80E8E53BD393
:10128D009400400CE53BFD7C00AF32AE31121B1CCF
:10129D00D3E5249400E52394004007AF24AE231238
:1012AD001D8DE4F56AF56BC3E56B954DE56A954CBF
:1012BD00502C121D62E4F56CF56DC3E56D9533741C
:1012CD0080F8656C98500D121EB2056DE56D70EAD3
:1012DD00056C80E6056BE56B70CD056A80C9E4F59C
:1012ED006CF56DC3E56D954AE56C9549500D121E73
:1012FD00B2056DE56D70EC056C80E8AF44AE431240
:02130D001D0AB7
:01130F0022BB
:101D6200000000E53225E0E5313390E6D0F00000D6
:101D720000E53225E090E6D1F000000075BB0400DA
:0B1D82000000E5BB20E7033003F8225F
:101F6A00E490E608F075C83443985053877FD2ACA2
:071F7A0075CBFF75CA64225C
:0D202A00309902C2998F993099FDC2992218
:101C5400E4F51EF51F209822051FE51F7002051EDE
:101C6400AE1EFFE4FCFD7BFA7AFFF9F8C3120E60A6
:0E1C74005004D2008004C20080DBC298AF99F9
:011C8200223F
:101DB600E490E608F0D28E53897F5389BF43892089
:101DC6005389EF438E10758DB243C05043D880C2FD
:081DD600C0C2C1D2AED2AF229F
:0E1F070074002559F58274FC3558F583E0FF0F
:0D1F150030C102C2C18FC130C1FDC2C12266
:101C8300E4F571F57220C0220572E57270020571E8
:101C9300AE71FFE4FCFD7BFA7AFFF9F8C3120E6024
:0E1CA3005004D2008004C20080DBC2C0AFC17A
:011CB1002210
:052096007E08121E315E
:04209B0075B00922F1
:05209F007E08121E3155
:0420A40075B00322EE
:0520A8007E08121E314C
:0420AD0075B00622E2
:0520B1007E08121E3143
:0420B60075B00C22D3
:0D203700E4F5B07525FF90E7CBE525F0221C
:101E72001220B67FFC12209612209F1220A8122058
:101E8200B17E08121E31E4F52590E7CBE525F0225C
:101E92001220B67FFC1220A812209F122096122038
:101EA200B17E08121E3175250390E7CBE525F0229D
:101E4E001220A47FC47E09121E3112209B7E09121D
:101E5E001E311220B67E09121E3175250190E7CB78
:041E6E00E525F02254
:101D360012209B7FC47E09121E311220A47E091236
:101D46001E311220AD7E09121E311220B67E0912F6
:0C1D56001E3175250290E7CBE525F02238
:0820C200E4F51DD2E9D2AF22C2
:101B890090E678E020E6F9C2E990E678E04480F052
:101B9900EF25E090E679F090E678E030E0F990E61C
:101BA90078E04440F090E678E020E6F990E678E0C5
:061BB90030E1D6D2E92262
:101BF300A90790E678E020E6F9E51D702390E678E2
:101C0300E04480F0E925E090E679F08D18AF03A970
:101C1300077519018A1A891BE4F51C751D01D32266
:021C2300C322DA
:101BBF00A90790E678E020E6F9E51D702590E67814
:101BCF00E04480F0E925E0440190E679F08D18AF0C
:101BDF0003A9077519018A1A891BE4F51C751D03E2
:041BEF00D322C32218
:03004B00020EC0E2
:100EC000C0E0C083C082C085C084C086758600C073
:100ED000D075D000C000C001C002C003C006C0076A
:100EE00090E678E030E206751D06020FAA90E678DB
:100EF000E020E10CE51D64026006751D07020FAAE3
:100F0000E51D24FE605F14603624FE7003020F9B13
:100F100024FC7003020FA724086003020FAAAB1978
:100F2000AA1AA91BAF1C051C8F82758300120E1113
:100F300090E679F0E51C65187070751D05806B9062
:100F4000E679E0AB19AA1AA91BAE1C8E8275830044
:100F5000120E3E751D02E5186401704E90E678E0B1
:100F60004420F08045E51824FEB51C0790E678E0A3
:100F70004420F0E51814B51C0A90E678E04440F0EF
:100F8000751D0090E679E0AB19AA1AA91BAE1C8E5C
:100F900082758300120E3E051C800F90E678E044B7
:100FA00040F0751D008003751D005391DFD007D000
:100FB00006D003D002D001D000D0D0D086D084D0CB
:080FC00085D082D083D0E0321D
:101ECF00121BBFE51D24FA600E146006240770F381
:0C1EDF00D322E4F51DD322E4F51DD3222C
:101EEB00121BF3E51D24FA600E146006240770F331
:0C1EFB00D322E4F51DD322E4F51DD32210
:0300000002188063
:0C188000787FE4F6D8FD7581720218C76D
:100D1B00E709F608DFFA8046E709F208DFFA803EBA
:100D2B0088828C83E709F0A3DFFA8032E309F608A7
:100D3B00DFFA8078E309F208DFFA807088828C830F
:100D4B00E309F0A3DFFA806489828A83E0A3F608C3
:100D5B00DFFA805889828A83E0A3F208DFFA804C9D
:100D6B0080D280FA80C680D4806980F28033801074
:100D7B0080A680EA809A80A880DA80E280CA8033DD
:100D8B0089828A83ECFAE493A3C8C582C8CCC58355
:100D9B00CCF0A3C8C582C8CCC583CCDFE9DEE78025
:100DAB000D89828A83E493A3F608DFF9ECFAA9F0A4
:100DBB00EDFB2289828A83ECFAE0A3C8C582C8CCFA
:100DCB00C583CCF0A3C8C582C8CCC583CCDFEADE13
:100DDB00E880DB89828A83E493A3F208DFF980CC75
:100DEB0088F0EF60010E4E60C388F0ED2402B4046E
:100DFB000050B9F582EB2402B4040050AF23234515
:060E0B008223900D6B73C1
:100E1100BB010CE58229F582E5833AF583E0225096
:100E210006E92582F8E622BBFE06E92582F8E222E0
:0D0E3100E58229F582E5833AF583E49322FA
:100E3E00F8BB010DE58229F582E5833AF583E8F0EA
:100E4E00225006E92582C8F622BBFE05E92582C896
:020E5E00F2227E
:100E6000EB9FF5F0EA9E42F0E99D42F0EC6480C809
:060E700064809845F022A9
:100E7600EB9FF5F0EA9E42F0E99D42F0E89C45F0D2
:010E86002249
:100E8700E8600FECC313FCED13FDEE13FEEF13FF49
:030E9700D8F1226D
:100E9A00D083D082F8E4937012740193700DA3A3E7
:100EAA0093F8740193F5828883E4737402936860FB
:060EBA00EFA3A3A380DFFB
:10188C00020B6EE493A3F8E493A34003F68001F2F9
:10189C0008DFF48029E493A3F85407240CC8C3335D
:1018AC00C4540F4420C8834004F456800146F6DF2C
:1018BC00E4800B0102040810204080900FC8E47EE5
:1018CC00019360BCA3FF543F30E509541FFEE49321
:1018DC00A360010ECF54C025E060A840B8E493A3E8
:1018EC00FAE493A3F8E493A3C8C582C8CAC583CA13
:1018FC00F0A3C8C582C8CAC583CADFE9DEE780BECB
:0110A8000047
:00000001FF
