:0A220F0000010202030304040505A8
:100B3B00E4F56BF56AF569F568C211C20EC210C215
:100B4B000F12202B12076F7E177F008E0A8F0B75EB
:100B5B00121775131275081775091C751017751177
:100B6B005175161775177FEE54E07003020C8275E2
:100B7B006C00756D808E6E8F6FC374A99FFF741799
:100B8B009ECF2402CF3400FEE48F678E66F565F5A9
:100B9B0064F563F562F561F560AF67AE66AD65ACA4
:100BAB0064AB63AA62A961A860C3120A035026E56D
:100BBB006D2563F582E56C3562F58374CDF0E563E5
:100BCB002401F563E43562F562E43561F561E435E2
:100BDB0060F56080C4E4F563F562F561F560AF67BD
:100BEB00AE66AD65AC64AB63AA62A961A860C312C3
:100BFB000A035031AE62AF63E56F2FF582E56E3EAF
:100C0B00F583E0FDE56D2FF582E56C3EF583EDF0A8
:100C1B00EF2401F563E43EF562E43561F561E435FB
:100C2B0060F56080B9856C0A856D0B74002480FFBC
:100C3B00741734FFFEC3E5139FF513E5129EF512EF
:100C4B00C3E50D9FF50DE50C9EF50CC3E50F9FF568
:100C5B000FE50E9EF50EC3E5099FF509E5089EF518
:100C6B0008C3E5119FF511E5109EF510C3E5179F1D
:100C7B00F517E5169EF516D2E843D82090E668E006
:100C8B004409F090E65CE0443DF0D2AFD288D28AC2
:100C9B00C2A8C2AA43E808D2FB90E680E020E10597
:100CAB00D212121DC190E680E054F7F0538EF8C2B9
:100CBB0011300F0512054BC20F3011291215FE50C2
:100CCB0024C211121F1C200E1690E682E030E7049E
:100CDB00E020E1EF90E682E030E604E020E0E41271
:0A0CEB001E1D1216FE12144580C7EC
:10054B0090E6B9E070030205FC14700302067924EF
:10055B00FE70030206FC24FB70030205F614700305
:10056B000205F01460731460762405600302075BC8
:10057B001222C3400302076790E6BBE024FE602211
:10058B0014603324FD601114602224067048E50AC0
:10059B0090E6B3F0E50B8037E51290E6B3F0E51388
:1005AB00802DE50C90E6B3F0E50D8023E50E90E68B
:1005BB00B3F0E50F801990E6BAE0FF121E49AA06C8
:1005CB00A9077B01EA494B600DEE90E6B3F0EF9083
:1005DB00E6B4F00207670207601220DA020767121F
:1005EB002258020767121A440207671220C8020733
:1005FB00671222C5400302076790E6B8E0247F60CC
:10060B001514601924027063A20EE43325E0FFA2D7
:10061B0010E4334F8041E490E740F0803F90E6BC1C
:10062B00E0547EFF7E00E0D394807C0040047D018B
:10063B0080027D00EC4EFEED4F240FF58274223EBE
:10064B00F583E493FF3395E0FEEF24A1FFEE34E650
:10065B008F82F583E0540190E740F0E4A3F090E63D
:10066B008AF090E68B7402F0020767020760122291
:10067B00C7400302076790E6B8E024FE6016240229
:10068B00600302076790E6BAE0B40105C20E0207E9
:10069B006702076090E6BAE0705590E6BCE0547EC6
:1006AB00FF7E00E0D394807C0040047D0180027DBE
:1006BB0000EC4EFEED4F240FF58274223EF583E4E1
:1006CB0093FF3395E0FEEF24A1FFEE34E68F82F526
:1006DB0083E054FEF090E6BCE05480131313541FD8
:1006EB00FFE0540F2F90E683F0E04420F0806D8004
:1006FB00641222C9506690E6B8E024FE6019240209
:10070B00705A90E6BAE0B40104D20E804F90E6BA6C
:10071B00E064026047803E90E6BCE0547EFF7E00C2
:10072B00E0D394807C0040047D0180027D00EC4E80
:10073B00FEED4F240FF58274223EF583E493FF33D5
:10074B0095E0FEEF24A1FFEE34E68F82F58380085F
:10075B00120080500790E6A0E04401F090E6A0E084
:03076B004480F0D7
:01076E002268
:030033000222B3F3
:0422B30053D8EF32DB
:10202B00758CE0758AC0E58954F04401F589758E8D
:08203B0003D28CD2A9D2AF221E
:03003B000218B6F2
:1018B600C0E0C083C082C0D075D000C006C007306B
:1018C600C041C2C085C114052FE52F7002052ED375
:1018D600E52F94F4E52E648094814006752E0075FC
:1018E6002F00AE2EAF2FEE90F800F0AE2EAF2FEFFA
:1018F600A3F0AE2EAF2F74012FF58274F83EF58358
:10190600E514F030C105C2C185C114D007D006D098
:08191600D0D082D083D0E03272
:03002300021AFDC1
:101AFD00C0E0C083C082C0D075D000C0073098361A
:101B0D00C298859915052DE52D7002052CD3E52D6F
:101B1D00940EE52C648094804006752C00752D0084
:101B2D00AF2D90E7F0EFF0AF2D74F02FF582E43488
:101B3D00E7F583E515F0D007D0D0D082D083D0E083
:011B4D003265
:03005B0002191E69
:09191E00C0E0C0D075D000C00784
:10192700AF91530780EF6480704953917F200C413A
:10193700E54DB40120300A08753330754D00D202E9
:10194700D3E54094D0E53F94075002D20A753F0093
:10195700754000801CE54DB40217300B140533E5C4
:1019670033B43803753330E533B53405754D00C2EC
:031977000BC20C94
:07197A00D007D0D0D0E0320D
:1017000012010002000000401816238300000102AD
:1017100000010A0600020000004001000902350035
:1017200001010080FA0904000005FF000000070520
:101730000102400000070582020002000705810245
:1017400040000007058602000200070508020002AB
:101750000009022E0001010080FA0904000004FFC4
:10176000000000070501024000000705820240005A
:101770000007050202000200070581024000000484
:1017800003090410035100480059002D0043004391
:101790000044001603510048005900390030004150
:0B17A0000020002000200020000000BE
:100EA30060802410030A0303020203070000000208
:100EB300000002000A2B0B13111511110000000092
:100EC3000000003F020A03030303030700000002BC
:100ED300000002000A2B130B111511110000000072
:100EE3000000003F032D0303030303070000000278
:100EF300000002000A2B0B13111511110000000052
:100F03000000003F030A0A0A0A0E0A070000000253
:100F1300000002000A2B130B111511110000000031
:100F23000000003F60242497000000000000000040
:100F330000000000000000000000000000000000AE
:100F43000000000000000000000000004724908023
:060F5300000009CA4E0077
:10150B0090E60174CAF090E6F574FFF0902490E039
:10151B0090E6F3F0902491E090E6C3F0902492E0F3
:10152B0090E6C1F0902493E090E6C2F0902495E011
:10153B0090E6C0F0902496E090E6F4F075AF077457
:10154B0024F59A7410F59B759DE4E4F59EFF90E6E7
:10155B007BE090E67CF00FBF80F490E67174FFF0B7
:10156B00F5B490E672E04480F043B680000000E4EE
:10157B0090E6C4F000000090E6C5F0902497E09050
:10158B00E6C6F0902498E090E6C7F0902499E0909E
:10159B00E6C8F090249AE090E6C9F090249BE09086
:1015AB00E6CAF090249CE090E6CBF090249DE0906E
:0B15BB00E6CCF090249EE090E6CDF01E
:0115C6002202
:03004300021600A2
:0300530002160092
:1016000002204300022089000220730002205B00B8
:10161000021CEF00021C76000222CB000222CC004A
:101620000222CD000222CE00021CB3000212A3004F
:101630000222CF000222D000021C33000218370021
:101640000222D1000222CC000222D2000222D300C8
:101650000222D4000222D5000222D6000222D700A4
:101660000222D8000222CC000222CC000222CC00AE
:101670000222D9000222DA000222DB000222DC0070
:101680000222DD000222DE000222DF000222E00050
:101690000222E1000222E2000222E3000222E40030
:1016A0000222E5000222E6000222E7000222E80010
:0816B0000222E9000222EA0017
:101E1D0090E682E030E004E020E60B90E682E030D0
:101E2D00E119E030E71590E680E04401F07F147E83
:0C1E3D00001216B890E680E054FEF0227F
:101F1C0090E682E044C0F090E681F0438701000037
:041F2C00000000228F
:101DC10030120990E680E0440AF0800790E680E056
:101DD1004408F07FDC7E051216B890E65D74FFF0D2
:0F1DE10090E65FF05391EF90E680E054F7F02228
:021E4900A907E7
:101E4B00AE16AF178F828E83A3E064037017AD01BC
:101E5B0019ED7001228F828E83E07C002FFDEC3E0A
:091E6B00FEAF0580DF7E007F0060
:011E7400224B
:1016B8008E748F7590E600E054187012E575240159
:1016C800FFE43574C313F574EF13F575801590E6D0
:1016D80000E05418FFBF100BE57525E0F575E574BB
:1016E80033F574E5751575AE74700215744E6005A2
:0616F800121F3080EE22FB
:101F30007400F58690FDA57C05A3E582458370F9C4
:011F4000227E
:100F5900C18302381040C100C108C1050452000014
:100F6900000001490001260044252000000000443A
:100F7900251C00000000013E0041251B00014D0118
:100F89000134FF013330023F0000024B0000015AD7
:100F990000023AC35002310019C10AC18CC102C111
:0A0FA9000B01430001410001370075
:101DF0008E708F719024FB7403F0E4A3F07A247B3F
:101E0000FB7D027F41121FF69024FB7401F0A3E5D5
:0D1E100071F07A247BFB7D027F41021FF6FA
:05211000122115AF05CE
:0B211500C2B6C2B48FB1D2B4D2B62261
:0B220400D2B6C2B48FB1D2B4D2B62261
:0C218000AE077FA0122115AF060221154A
:0C218C00AE077FA1122115AF060221153D
:0C219800AE077FA2122115AF0602211530
:07226800EF44A4FF02211561
:07226F00EF44AEFF02211550
:0C21A400AE077FAD122115AF0602211519
:0C21B000AE077FA8122115AF0602211512
:0C21BC00AE077FB0122115AF06022115FE
:0C21C800AE077FB1122115AF06022115F1
:0C21D400AE077FBB122115AF06022115DB
:0C21E000AE077FB3122115AF06022115D7
:101F8400AE07AC037F8A122115AF061221157F8B91
:0D1F94001221107F8C122115AF04022115BF
:0C21EC00AE077F87122115AF06022115F7
:101FA100AE07AC037F81122115AF061221157F8286
:0D1FB1001221107F83122115AF04022115AB
:0C21F800AE077FBE122115AF06022115B4
:0E212000AE05AD077F15122110AF0602211586
:0E212E00AE05AD077F75122110AF0602211518
:041EF500AC05AB0786
:101EF9007D5FE4FF1221207D3FFF12212EFEE4FDCC
:101F0900AF03122204AF041222040DBD60F20EBE0B
:021F190040EC9A
:011F1B0022A3
:061B4E008B5B8A5C895DDF
:101B5400E4F55EF55F900001120965FC700C7D5F91
:101B6400FF1221207D3FFF02212EBCFF2DD2B6752E
:101B74005E00755F02C2B4AB5BAA5CA95D855F823F
:101B8400855E83120965F5B1D2B4055FE55F700225
:0A1B9400055EB482E0E55EB401DBFB
:011B9E002224
:1019E300C2B77FC87E00121BD8D2B7E4FF12226FA2
:1019F3007F72122180E4FF12218CFF122198FF12C3
:101A030022687F3F1221B07F8E1221A47F0B122107
:101A1300BC7F311221C87FF01221E07B647D787F87
:101A230064121F847F3A1221D47F3E1221F87F066D
:101A33001221EC7B7D7D507F91121FA17F01022239
:011A43006F33
:10076F0090E600E054E74410F00000000000009015
:10077F00E61074A0F000000090E60B7401F090E614
:10078F001274E0F0000000E490E613F00000009017
:10079F00E61474E2F000000090E61574A0F000007B
:1007AF000090E6D27402F090E6047480F00000002E
:1007BF007402F00000007406F00000007408F000EE
:1007CF000000E4F000000012150B90E6187408F01A
:1007DF0000000090E619F000000090E61AF000000B
:1007EF000090E61BF0000000E490E671F075B47F16
:1007FF0075A07F90E672F075B6FF75B1FF90E67049
:10080F00F075B2FF75B5FFC28CD2B01222A790E679
:10081F001074A0F000000090E611F000000090E6C8
:10082F005EE04408F0000000E490E68DF000000068
:10083F0090E65EE04404F0000000E490E7C0F09022
:10084F00E7C4F0A3F0A3F0A3F090E7F0F090E68FE9
:10085F007440F000000090E65EE04440F0000000BD
:10086F007E027F0090F800E4F0A3DFFCDEFA90E652
:10087F00987402F0000000E490E699F00000007E0A
:10088F00027F0090F800E4F0A3DFFCDEFA90E65E52
:10089F00E04480F0000000E490E69CF0000000903F
:1008AF00E69DF00000007F9AFE1222197528007550
:1008BF0029B4754E01754F907538107539B875504C
:1008CF000675512C12226090E67AE054FEF0E4FD9A
:1008DF007F901220EC7F647E001216B87DFF7F425E
:1008EF001220EC7F647E001216B87D827F4E12209C
:1008FF00EC7542FF43A020E4F54690E782E542F015
:10090F0090E781E546F01222A7D20C754D01753A9A
:10091F0027753B10753100753205121AA37F887E3B
:10092F0013121BD8121AA37FB87E0B121BD87F8805
:10093F007E13121BD81221661219E37DFFE4FF12FA
:10094F001EF5D2F9C2F8E4F54990E7C0E549F04346
:05095F00A01053917F80
:010964002270
:0E213C00EF2401FBE43EFA7D047F48021FDA27
:100CF500E546C313FFC374809FF578E546D394009A
:100D050040067542FF43A020E546700353A0DF7EF1
:100D1500257F2412213C902525E090E7C1F0902500
:100D250026E090E7C2F09024FB74E5F07A247BFB83
:100D35007D017F41121FF67A257B247D027F4112BA
:100D45001FDA902524E0FEA3E07C002400FFEC3EA2
:100D5500FEE48F778E76F575F5747F097E3DFDABE4
:100D650077AA76A975A8741209B4780D120A27EF27
:100D75002490F577EE34E8F576ED34FFF575EC342F
:100D8500FFF574E4FB7A01F9F8AF77AE76AD75AC93
:100D950074121BEF90E7CCEFF0E4FB7A01F9F8AFA2
:100DA50077AE76AD75AC74121BEF90E7CDEBF09096
:100DB50024FB7450F0A3742EF07A247BFB7D027F14
:100DC50041121FF69024FB74EEF07A247BFB7D0123
:100DD5007F41121FF67A257B247D027F41121FDA9F
:100DE500902524E0FEA3E07C002400FFEC3EFEE419
:100DF5008F778E76F575F5749024FB7450F0A37497
:100E05000FF07A247BFB7D027F41121FF6E47FCD34
:100E15007E55FDFCAB77AA76A975A8741209B4783E
:100E25000D120A27EF24FEF577EE3448F576ED34FA
:100E3500FFF575EC34FFF574E4FB7A01F9F8AF774B
:100E4500AE76AD75AC74121BEF90E7CEEFF0E4FB18
:100E55007A01F9F8AF77AE76AD75AC74121BEF90E9
:100E6500E7CFEBF09024FBE542F07A247BFB7D0194
:100E75007F21121FF69024FB7402F0A37480F07A90
:100E8500247BFB7D027F28121FF6E49024FBF0A350
:0E0E9500E578F07A247BFB7D027F28021FF6B1
:10144500E5552401F555E43554F554E43553F55384
:10145500E43552F552054CE54C7002054B055AAE84
:101465003AAF3BE4FCFDAB55AA54A953A852C312AD
:101475000A03700C120CF5E4F555F554F553F552C5
:1014850090E7C8E54DF0A3E533F0A3E541F0E54C61
:10149500B53228E54BB53123E54D601124FE6008D2
:1014A50004701312209F800E121F418009E4FFFE75
:1014B500121DF053A0EFE4F54BF54C30014775498B
:1014C5000190E7C0E549F0E5A030E7032008F8E41E
:1014D500FF12226F1211BF7F0112226FC201E4F5C4
:1014E5004990E7C0E549F0121AA37FB87E0B121B9D
:1014F500D8121AA37F887E13121BD87F887E1312F9
:061505001BD81221662232
:0215FE00D322F6
:0216FE00D322F5
:0222C300D32224
:101A440090E680E030E73A00000090E6207402F06F
:101A5400000000E490E621F000000090E624740207
:101A6400F0000000E490E625F000000090E6267403
:101A740002F0000000E490E627F0000000D20380AA
:101A840016000000E490E620F000000090E62174C7
:0F1A940040F0000000C20390E6BAE0F54AD3220A
:1020C80090E740E54AF0E490E68AF090E68B04F069
:0220D800D32211
:0822580090E6BAE0F527D3225D
:1020DA0090E740E527F0E490E68AF090E68B04F07A
:0220EA00D322FF
:0222C500D32222
:0222C700D32220
:0222C900D3221E
:10008000E4F570F57190E6B9E0120A4700B1B300EB
:10009000E9B5027BB602B3BB0305BC0366C203AE7F
:1000A000C503CDC60402CA0444CB04B8D000000581
:1000B00047E490E68AF090E68BF090E6A0E020E13D
:1000C000F990E68BE0F570E4F5B390E60174CAF0C0
:1000D000D20100000090E6047480F0000000740279
:1000E000F0000000E4F0020549E490E68AF090E6B2
:1000F0008BF090E6A0E020E1F990E68BE0F570D37C
:10010000943F4024E4F57174402571F582E434E7AE
:10011000F583E0FF74BB2571F582E43424F583EFA9
:10012000F00571E571B440DF7F8A7E0012221990DC
:1001300024BBE0FF7E001222229024BBE0FF7E0061
:1001400012222B9024BBE0FF7E001222349024BCAC
:10015000E075F004A4FFAEF012223D9024BCE075DF
:10016000F004A4FFAEF01222469024BCE075F00427
:10017000A4FFAEF012224F9024C0E0C394025013AB
:100180009024DCE090E6C07005744EF08016749CFC
:10019000F080119024DCE090E6C07005749FF08040
:1001A00003749DF09024DEE024FF92079024DBE0AE
:1001B00024FF92069024DFE024FF92099024E9E0D6
:1001C000754400F545A3E0FEA3E07C002400F5257E
:1001D000EC3EF5249024EEE090251BF09024C1E045
:1001E000F53CE53C7003753C019024C6E0FEA3E0BD
:1001F0007C002400F529EC3EF528A3E0FEA3E024D2
:1002000000F54FEC3EF54E9024C2E0FEA3E0240042
:10021000F539EC3EF538A3E0FEA3E02400F551ECFF
:100220003EF5509024CCE0FEA3E02400F548EC3EDF
:10023000F5479024CAE0FEA3E02400F536EC3EF535
:10024000359024F0E0540FF53EE4FD7F901220EC51
:100250009024BCE0FCA3E0FDA3E0FEA3E0FF90251A
:1002600020120A3B902520A3E0FDA3E0FEA3E0FFBF
:10027000E4FC902520120A3B020549E4F57174BBA9
:100280002571F582E43424F583E0FF74402571F58F
:1002900082E434E7F583EFF00571E571B440DF00E7
:1002A0000000E490E68AF000000090E68B7440F0D5
:1002B000020549E490E68AF090E68BF090E6A0E033
:1002C00020E1F990E6BCE09024FBF0E4F57190E6C3
:1002D000BEE0FFE571C39F501E74402571F582E4B6
:1002E00034E7F583E0FF74FC2571F582E43424F5EE
:1002F00083EFF0057180D790E6BAE0C313FF90E674
:10030000BEE0048059E490E68AF090E68BF090E637
:10031000A0E020E1F990E6BDE09024FBF090E6BC7F
:10032000E09024FCF0E4F57190E6BEE0FFE571C3D7
:100330009F501E74402571F582E434E7F583E0FF99
:1003400074FD2571F582E43424F583EFF0057180A6
:10035000D790E6BAE0C313FF90E6BEE02402FD7A30
:10036000247BFB0204B290E7407401F0A37406F012
:10037000A3740CF0A37426F0A37407F0A374EEF03A
:10038000A37401F0A37403F0A37453F0300305E4E5
:10039000A3F0800690E74974FFF0000000E490E6C7
:1003A0008AF000000090E68B740AF00205497AE7B3
:1003B0007B407D047F48121FDA000000E490E68A4B
:1003C000F000000090E68B7404F0020549E490E62A
:1003D0008AF090E68BF090E6A0E020E1F990E68BC1
:1003E000E0F570D39401500302054990E741E0FD28
:1003F0007F421220EC90E740E0FD7F4E1220EC029D
:10040000054990E6BCE0902524F07A257B247D0107
:100410007F50121FF67A257B247D017F50121FF634
:1004200090E6BEE0FD7AE77B407F50121FDAE49051
:10043000E68AF000000090E6BEE090E68BF0000057
:1004400000020549E490E68AF000000090E68BF097
:1004500000000090E6A0E020E1F990E6BCE0D39433
:10046000075003020549E09024FBF0E4F57190E6A3
:10047000BEE0FFE571C39F501E74402571F582E414
:1004800034E7F583E0FF74FC2571F582E43424F54C
:1004900083EFF0057180D790E6BEE004FD7A247BFF
:1004A000FB7F50121FF690E6BEE004FD7A247BFB32
:1004B0007F50121FF6020549E490E68AF090E68B21
:1004C000F090E6A0E020E1F990E68BE0F571C298AB
:1004D00090E740E0C394304006E0D3943640079064
:1004E000E740E0F47063E54D705F43A01090E74093
:1004F000E0B4FF09D20C754D01C20A804C90E74070
:10050000E0F53465336042C20BE0B40A0375346130
:1005100090E740E0B40B0375346290E740E0B40C20
:100520000375346390E740E0B40D0375346490E7DD
:1005300040E0B40E0375346590E740E0B40F0375F6
:0A0540003466754D028002D322C319
:01054A00228E
:10204300C0E0C083C082D20F5391EF90E65D74016C
:08205300F0D082D083D0E0320E
:10207300C0E0C083C0825391EF90E65D7404F0D05A
:0620830082D083D0E032A0
:10208900C0E0C083C0825391EF90E65D7402F0D046
:0620990082D083D0E0328A
:101CEF00C0E0C083C08285100C85110D850D8285E3
:101CFF000C83A37402F085080E85090F850F82856A
:101D0F000E83A37407F05391EF90E65D7410F0D03B
:061D1F0082D083D0E03207
:10205B00C0E0C083C082D2115391EF90E65D74084B
:08206B00F0D082D083D0E032F6
:101C7600C0E0C083C08290E680E030E72085080C93
:101C860085090D850D82850C83A37402F085100EDF
:101C960085110F850F82850E83A37407F05391EF8C
:0D1CA60090E65D7420F0D082D083D0E03253
:0122CB0032E0
:0122CC0032DF
:0122CD0032DE
:0122CE0032DD
:101CB300C0E0C083C08290E65EE054FBF000000009
:101CC30090E68F7440F0000000752C00752D009095
:101CD300E7F0E4F05391EF90E65FE04404F090E620
:0C1CE3005EE04404F0D082D083D0E032F8
:1012A300C0E0C0F0C083C082C0D075D000C000C011
:0D12B30001C002C003C004C005C006C00792
:1012C000755B00755C0090E65EE054F7F090E6A177
:1012D000E020E1F990E780E0FF14601324CF601D67
:1012E0002434605414605B14705D75230080589042
:1012F000E782E0F54290E781E0F546804A90E78199
:10130000E07005121AA3803F90E781E0B401051256
:101310002012803390E781E0B40205121FBE8027BF
:1013200090E781E0B40305122173801B90E781E010
:10133000B4FF14122166800F90E781E024FF920829
:101340008005752300D20400000090E68DE4F05380
:1013500091EF90E65FE04408F090E65EE04408F02C
:10136000D007D006D005D004D003D002D001D000E1
:0B137000D0D0D082D083D0F0D0E0328B
:0122CF0032DC
:0122D00032DB
:101C3300C0E0C083C08290E65EE054BFF0000000C5
:101C430090E6987402F000000090E699E4F000003A
:101C530000F52EF52F90F800F0A3F05391EF90E6E6
:101C63005FE04440F090E65EE04440F0D082D083F1
:031C7300D0E0328C
:10183700C0E0C083C082C0D075D000C000C001C066
:0B18470002C003C004C005C006C007BB
:1018520090E65EE0547FF090E6A6E020E1F990E6A3
:101862009CE0FE90E69DE07C002400FFEC3EFEBE84
:10187200010CBF82097B017AFC7900121B4E000029
:101882000090E69CE4F090E69DF05391EF90E65FC5
:0B189200E04480F090E65EE04480F04F
:10189D00D007D006D005D004D003D002D001D0009F
:0918AD00D0D0D082D083D0E0320B
:0122D10032DA
:0122D20032D9
:0122D30032D8
:0122D40032D7
:0122D50032D6
:0122D60032D5
:0122D70032D4
:0122D80032D3
:0122D90032D2
:0122DA0032D1
:0122DB0032D0
:0122DC0032CF
:0122DD0032CE
:0122DE0032CD
:0122DF0032CC
:0122E00032CB
:0122E10032CA
:0122E20032C9
:0122E30032C8
:0122E40032C7
:0122E50032C6
:0122E60032C5
:0122E70032C4
:0122E80032C3
:0122E90032C2
:0122EA0032C1
:06137B008F728C738D746B
:1013810053720753B0F77F0A7E00121BD8E4F5753C
:10139100F576C374029576FFE572A807088002C34B
:1013A10013D8FC30E00543800280035380FD7F0A9F
:1013B1007E00121BD84380017F0A7E00121BD85386
:1013C10080FE7F0A7E00121BD80576E57670020545
:1013D10075C39403E5756480948040B6E4F575F5B2
:1013E10076C374099576FFE574AE73A80708800586
:1013F100CEC313CE13D8F930E005438002800353E6
:1014010080FD7F0A7E00121BD84380017F0A7E0087
:10141100121BD85380FE7F0A7E00121BD80576E589
:101421007670020575C3940AE5756480948040B1B5
:1014310043B0087F0A7E00121BD853B0F77F0A7EA3
:0414410000021BD8B2
:09221900AD07AC06E4FF02137BE3
:09222200AD07AC067F0402137B3A
:09222B00AD07AC067F0502137B30
:09223400AD07AC067F0602137B26
:09223D00AD07AC067F0102137B22
:09224600AD07AC067F0202137B18
:09224F00AD07AC067F0302137B0E
:1020EC009024FBEDF0EFC313FF7A247BFB7D010200
:0220FC001FF6CD
:101B9F0012215F7FC47E09121BD81221517FC47E90
:101BAF0009121BD81222A07FC47E09121BD8122241
:101BBF00997FC47E09121BD81222927FC47E09120C
:091BCF001BD812228B7FC47E0991
:101BD800EF7803C333CE33CED8F9FFEF4E6007EF6B
:071BE8001F70F81E80F522BA
:0322B700C28422BC
:0322BA00D28422A9
:0322BD00C28322B7
:0322C000D28322A4
:0622A7001222C00222BA5F
:101F63001222BD7F027E00121BD81222B71222C09A
:101F73007F027E00121BD81222BA7F027E00021B50
:011F8300D885
:1020FE00E4FDFC121F630DBD00010CBC0DF5BDF619
:01210E00F2DE
:01210F0022AD
:0722760012201243A04022D8
:0622AD0053A0BF022173E3
:1020B50053A0BF1222A012214A1221587FD07E07B9
:0320C500021BD823
:1010BC00902520E0FCA3E0FDA3E0FEA3E0FF90253B
:1010CC001C120A3B300602C2B090251BE0700312C2
:1010DC0022763007030211A7752301E47FE87E0313
:1010EC00FDFC90251CE0F8A3E0F9A3E0FAA3E0FBDB
:1010FC00C3120A035003021195E523640160030235
:10110C0011957FDD7E031216B8120CF590251CE0AC
:10111C00FCA3E0FDA3E0FEA3E02418FFEE34FCFEEC
:10112C00ED34FFFDEC34FFFC90251C120A3B90259E
:10113C001CE0FCA3A3A3E4FFFEFDEC7818120A1438
:10114C0090E7C4EFF090251CA3E0FDA3A3E4FFFE01
:10115C00E4FC7810120A1490E7C5EFF090251CA35C
:10116C00A3E0FEA3E4FFE4FDFC7808120A1490E768
:10117C00C6EFF090251CE0FCA3E0FDA3E0FEA3E08D
:10118C00FF90E7C7EFF00210E7E523B401169025B6
:10119C001EE0FEA3E0FF1216B88009752301E523BB
:1011AC00640160FA90251BE070031222AD30060238
:0311BC00D2B0228C
:101E7500AD07AC06D3ED9400EC9400401E000000C5
:101E8500EE90E6D0F0000000ED90E6D1F000000005
:0C1E950075BB04000000E5BB30E7FB2239
:0815C7008C748D75AB07AA06B8
:1015CF00E4FDFCC3ED9575EC95745022EA90E6D0DE
:1015DF00F0000000EB90E6D1F000000075BB0500B5
:0E15EF000000E5BB30E7FB0DBD00010C80D510
:0115FD0022CB
:101ECC00AD07AC06000000ED25E0EC3390E6D0F059
:101EDC00000000ED25E090E6D1F000000075BB0499
:091EEC00000000E5BB30E7FB2219
:1011BF00C2041222A012214A1221587FD07E071298
:1011CF001BD890251BE0B40107E53E70031220B534
:1011DF001220FE75490290E7C0E549F01210BC7568
:1011EF00490390E7C0E549F03004030212A2E4F589
:1011FF0072F573C3E5739529E5729528500D121F8B
:10120F00630573E57370EC057280E8D3E5459400D0
:10121F00E5449400400BAD45AC44AF39AE381215E0
:10122F00C7D3E5259400E52494004007AF25AE24ED
:10123F00121ECCE4F570F571C3E5719551E570950B
:10124F0050502C121EA1E4F572F573C3E573953C53
:10125F007480F8657298500D121F630573E57370F3
:10126F00EA057280E60571E57170CD057080C9E4FD
:10127F00F572F573C3E573954FE572954E500D12E8
:10128F001F630573E57370EC057280E8AF48AE47D6
:03129F00121E75A7
:0112A2002229
:101EA100000000E53925E0E5383390E6D0F0000088
:101EB10000E53925E090E6D1F000000075BB040093
:0B1EC1000000E5BB20E7033004F8221E
:07227D0053A0F043A0092269
:0722840053A0F043A001226A
:07228B0053A0F043A0032261
:0722920053A0F043A002225B
:0722990053A0F043A0062250
:0722A00053A0F043A004224B
:07214A007FD07E07121BD8B5
:0721510053A0F043A00C2293
:072158007FD07E07121BD8A7
:07215F0053A0F043A0082289
:0D21660053A0F07526FF90E7CBE526F02290
:101AA30012227D7F287E0A121BD81222847F287E71
:101AB3000A121BD812228B7F287E0A121BD81222ED
:101AC300927F287E0A121BD81222997F287E0A123F
:101AD3001BD81222A07F287E0A121BD81221517F05
:101AE300287E0A121BD812215F7F287E0A121BD878
:0A1AF300E4F52690E7CBE526F0228B
:0D217300121B9F75260390E7CBE526F02296
:10201200121B9F122284121BD412227D121BD47512
:09202200260190E7CBE526F0222F
:101FBE0012227D121BD4122284121BCA12229212DA
:0C1FCE001BD475260290E7CBE526F0221C
:101981000537E537B40803E4F537E53770057F0817
:10199100FE804BE537B401067F0A7E008040E537C3
:1019A100B402067F027E008035E537B403067F036B
:1019B1007E00802AE537B404067F017E00801FE5A2
:1019C10037B405067F057E008014E537B406067F2F
:1019D100047E008009E537B407077F0C7E00121DE5
:0219E100F022F2
:10209F00C202E54D600F6405600B1219810540E522
:0620AF00407002053F2213
:101F4100E54D601D640560190540E5407002053FDF
:101F5100121981E54064A0453F7006F53FF540D276
:021F61000B2251
:08226000E4F51DD2E9D2AF2222
:101D250090E678E020E6F9C2E990E678E04480F0B4
:101D3500EF25E090E679F090E678E030E0F990E67E
:101D450078E04440F090E678E020E6F990E678E027
:061D550030E1D6D2E922C4
:101D8F00A90790E678E020E6F9E51D702390E67844
:101D9F00E04480F0E925E090E679F08D18AF03A9D3
:101DAF00077519018A1A891BE4F51C751D01D322C9
:021DBF00C3223D
:101D5B00A90790E678E020E6F9E51D702590E67876
:101D6B00E04480F0E925E0440190E679F08D18AF6E
:101D7B0003A9077519018A1A891BE4F51C751D0344
:041D8B00D322C3227A
:03004B00020FB4ED
:100FB400C0E0C083C082C085C084C086758600C07E
:100FC400D075D000C000C001C002C003C006C00775
:100FD40090E678E030E206751D0602109E90E678F1
:100FE400E020E10CE51D64026006751D0702109EF9
:100FF400E51D24FE605F14603624FE700302108F2A
:1010040024FC700302109B2408600302109EAB1999
:10101400AA1AA91BAF1C051C8F82758300120965CF
:1010240090E679F0E51C65187070751D05806B906D
:10103400E679E0AB19AA1AA91BAE1C8E827583004F
:10104400120992751D02E5186401704E90E678E06D
:101054004420F08045E51824FEB51C0790E678E0AE
:101064004420F0E51814B51C0A90E678E04440F0FA
:10107400751D0090E679E0AB19AA1AA91BAE1C8E67
:1010840082758300120992051C800F90E678E04473
:1010940040F0751D008003751D005391DFD007D00B
:1010A40006D003D002D001D000D0D0D086D084D0D6
:0810B40085D082D083D0E03228
:101FDA00121D5BE51D24FA600E146006240770F3D7
:0C1FEA00D322E4F51DD322E4F51DD32220
:101FF600121D8FE51D24FA600E146006240770F387
:0C200600D322E4F51DD322E4F51DD32203
:030000000217AB39
:0C17AB00787FE4F6D8FD7581780217F213
:10096500BB010CE58229F582E5833AF583E0225047
:1009750006E92582F8E622BBFE06E92582F8E22291
:0D098500E58229F582E5833AF583E49322AB
:10099200F8BB010DE58229F582E5833AF583E8F09B
:1009A200225006E92582C8F622BBFE05E92582C847
:0209B200F2222F
:1009B400E88FF0A4CC8BF0A42CFCE98EF0A42CFCE2
:1009C4008AF0EDA42CFCEA8EF0A4CDA8F08BF0A460
:1009D4002DCC3825F0FDE98FF0A42CCD35F0FCEBBF
:1009E4008EF0A4FEA9F0EB8FF0A4CFC5F02ECD3984
:0F09F400FEE43CFCEAA42DCE35F0FDE43CFC22F1
:101BEF00C2D5E830E70FB2D5E4C39BFBE49AFAE421
:101BFF0099F9E498F8EC30E717B2D5121C25120AC0
:101C0F00A9E4C39BFBE49AFAE499F9E498F88003FA
:101C1F00120AA930D50DE4C39FFFE49EFEE49DFD9B
:041C2F00E49CFC2213
:100A0300EB9FF5F0EA9E42F0E99D42F0E89C45F049
:010A130022C0
:100A1400E8600FECC313FCED13FDEE13FEEF13FFC0
:030A2400D8F122E4
:100A2700E86010ECA2E713FCED13FDEE13FEEF13E5
:040A3700FFD8F022D2
:0C0A3B00ECF0A3EDF0A3EEF0A3EFF0222E
:100A4700D083D082F8E4937012740193700DA3A33E
:100A570093F8740193F5828883E473740293686052
:060A6700EFA3A3A380DF52
:1017B700020B3BE493A3F8E493A34003F68001F202
:1017C70008DFF48029E493A3F85407240CC8C33333
:1017D700C4540F4420C8834004F456800146F6DF02
:1017E700E4800B0102040810204080900EA3E47EE1
:1017F700019360BCA3FF543F30E509541FFEE493F7
:10180700A360010ECF54C025E060A840B8E493A3BD
:10181700FAE493A3F8E493A3C8C582C8CAC583CAE8
:10182700F0A3C8C582C8CAC583CADFE9DEE780BEA0
:010FB300003D
:100A6D0075F008758200EF2FFFEE33FECD33CDCC40
:100A7D0033CCC58233C5829BED9AEC99E5829840C3
:100A8D000CF582EE9BFEED9AFDEC99FC0FD5F0D6A0
:100A9D00E4CEFBE4CDFAE4CCF9A88222B800C1B9CA
:100AAD000059BA002DEC8BF084CFCECDFCE5F0CB08
:100ABD00F97818EF2FFFEE33FEED33FDEC33FCEB41
:100ACD0033FB10D703994004EB99FB0FD8E5E4F9FC
:100ADD00FA227818EF2FFFEE33FEED33FDEC33FCE9
:100AED00C933C910D7059BE99A4007EC9BFCE99ADD
:100AFD00F90FD8E0E4C9FAE4CCFB2275F010EF2F22
:100B0D00FFEE33FEED33FDCC33CCC833C810D70721
:100B1D009BEC9AE899400AED9BFDEC9AFCE899F85C
:0E0B2D000FD5F0DAE4CDFBE4CCFAE4C8F922EF
:00000001FF
