:0A166E000001020203030404050555
:10077800E4F513F512F511F510C203C200C202C266
:10078800011209507E007F908E448F45754C00758C
:100798004DA27542007543AC754A00754BDA754E2B
:1007A80001754F0890E680E030E70E8542468543A4
:1007B80047854A48854B49800C854A46854B47857D
:1007C8004248854349EE54E070030208E975140075
:1007D8007515807E007F908E168F17C3742E9FFF2D
:1007E80074019ECF2402CF3400FEE48F0F8E0EF5E5
:1007F8000DF50CF50BF50AF509F508AF0FAE0EADC2
:100808000DAC0CAB0BAA0AA909A808C31211A55074
:100818002AE515250BF582E514350AF58374CDF024
:10082800E4FAF9F8E50B2401F50BEA350AF50AE9CB
:100838003509F509E83508F50880C0E4F50BF50A2F
:10084800F509F508AF0FAE0EAD0DAC0CAB0BAA0A4F
:10085800A909A808C31211A55035AE0AAF0BE517B0
:100868002FF582E5163EF583E0FDE5152FF582E5C7
:10087800143EF583EDF0E4FAF9F8EF2401F50BEAFC
:100888003EF50AE93509F509E83508F50880B58522
:10089800144485154574902480FF740034FFFEC30A
:1008A800E54D9FF54DE54C9EF54CC3E5479FF54753
:1008B800E5469EF546C3E5499FF549E5489EF54856
:1008C800C3E5439FF543E5429EF542C3E54B9FF5DB
:1008D8004BE54A9EF54AC3E54F9FF54FE54E9EF519
:1008E8004ED2E843D82090E668E04409F090E65CF0
:1008F800E0443DF0D2AF90E680E020E105D2071257
:10090800146090E680E054F7F0538EF8C20330018B
:10091800051204DEC20130032912008E5024C203DE
:1009280012156120001690E682E030E704E020E12D
:10093800EF90E682E030E604E020E0E412148F1243
:0709480016FE1213FB80C72D
:01094F002285
:1004DE0090E6B9E070030205BA14700302066324B5
:1004EE00FE70030206F824FB70030205B4147003B9
:1004FE000205AE1470030205A21470030205A824AF
:10050E00056003020764121700400302077090E6AD
:10051E00BBE024FE602C14604724FD60161460318D
:10052E0024067066E54490E6B3F0E54590E6B4F037
:10053E00020770E54C90E6B3F0E54D90E6B4F0029C
:10054E000770E54690E6B3F0E54790E6B4F0020793
:10055E0070E54890E6B3F0E54990E6B4F002077016
:10056E0090E6BAE0FF1214BBAA06A9077B01EA497E
:10057E004B600DEE90E6B3F0EF90E6B4F00207702C
:10058E0090E6A0E04401F002077090E6A0E044017E
:10059E00F00207701216510207701216BE02077093
:1005AE001212EC02077012163F0207701217024069
:1005BE000302077090E6B8E0247F602B14603C24A1
:1005CE00026003020659A200E433FF25E0FFA202F7
:1005DE00E4334F90E740F0E4A3F090E68AF090E623
:1005EE008B7402F0020770E490E740F0A3F090E6FF
:1005FE008AF090E68B7402F002077090E6BCE0542D
:10060E007EFF7E00E0D3948040067C007D01800456
:10061E007C007D00EC4EFEED4F246EF58274163E8E
:10062E00F583E493FF3395E0FEEF24A1FFEE34E66D
:10063E008F82F583E0540190E740F0E4A3F090E65A
:10064E008AF090E68B7402F002077090E6A0E04408
:10065E0001F0020770121704400302077090E6B80B
:10066E00E024FE601D2402600302077090E6BAE0EB
:10067E00B40105C20002077090E6A0E04401F0024A
:10068E00077090E6BAE0705990E6BCE0547EFF7EAB
:10069E0000E0D3948040067C007D0180047C007DC8
:1006AE0000EC4EFEED4F246EF58274163EF583E49B
:1006BE0093FF3395E0FEEF24A1FFEE34E68F82F533
:1006CE0083E054FEF090E6BCE05480FF1313135405
:1006DE001FFFE0540F2F90E683F0E04420F0020756
:1006EE007090E6A0E04401F08078121706507390E7
:1006FE00E6B8E024FE60202402706790E6BAE0B40B
:10070E000104D200805C90E6BAE06402605490E688
:10071E00A0E04401F0804B90E6BCE0547EFF7E00EA
:10072E00E0D3948040067C007D0180047C007D0037
:10073E00EC4EFEED4F246EF58274163EF583E49377
:10074E00FF3395E0FEEF24A1FFEE34E68F82F583B2
:10075E00E04401F0800C120130500790E6A0E04416
:09076E0001F090E6A0E04480F0E7
:01077700225F
:030033000216EAC8
:0416EA0053D8EF32B0
:1000900012010002000000401816111100000102B8
:1000A00000010A06000200000040010009022E00C3
:1000B000010100A0FA0904000004FF000000070588
:1000C0000102400000070586020002000705020247
:1000D0000002000705810240000009022E00010114
:1000E00000A0FA0904000004FF0000000705010257
:1000F000400000070586024000000705020240009C
:100100000007058102400000040309040E035100AA
:1001100048005900430043004400140351004800C4
:1001200059002D0031003100530020002000000054
:03004300020D00AB
:03005300020D009B
:100D00000215CC0002162900021613000215E40099
:100D10000213230002135A00020CFF0002170800FE
:100D20000217090002170A00020DB800020FA10005
:100D300002170B0002170C0002170D0002170E001D
:100D400002170F0002170800021710000217110007
:100D500002171200021713000217140002171500E1
:100D600002171600021708000217080002170800F1
:100D700002171700021718000217190002171A00AD
:100D800002171B0002171C0002171D0002171E008D
:100D900002171F000217200002172100021722006D
:100DA000021723000217240002172500021726004D
:080DB0000217270002172800BA
:10148F0090E682E030E004E020E60B90E682E03068
:10149F00E119E030E71590E680E04401F07F147E1B
:0C14AF000012126E90E680E054FEF02265
:1015610090E682E044C0F090E681F04387010000FC
:041571000000002254
:1014600030070990E680E0440AF0800790E680E0CB
:101470004408F07FDC7E0512126E90E65D74FFF08A
:0F14800090E65FF05391EF90E680E054F7F02292
:0214BB00A9077F
:1014BD00AE4EAF4F8F828E83A3E064037017AD01E4
:1014CD0019ED7001228F828E83E07C002FFDEC3EA2
:0914DD00FEAF0580DF7E007F00F8
:0114E60022E3
:10126E008E1E8F1F90E600E054187012E51F2401A9
:10127E00FFE4351EC313F51EEF13F51F801590E620
:10128E0000E05418FFBF100BE51F25E0F51FE51E0B
:10129E0033F51EE51F151FAE1E7002151E4E60059E
:0612AE0012157580EE220E
:101575007400F58690FDA57C05A3E582458370F989
:011585002243
:10121E00022B1A0002260000023B0000023E03F7DA
:10122E00023500000223000002290000012F0101F7
:10123E003300013200013A00013D00013100022D60
:10124E0000000141A00130000122000139000128F7
:0F125E0000013400C106014000012100013700EA
:0B16630030070453B1EF2243B1102206
:1015AA008E1E8F1FE51F451E60177F957E00121540
:1015BA00FC000000000000E51F151F7002151E80C8
:0215CA00E3221A
:1009500090E6007412F090E6017443F000000090FD
:10096000E61074A0F000000000000090E611F00016
:10097000000000000090E612F0000000E490E61392
:10098000F000000090E61474E0F0000000E490E64F
:1009900015F000000090E6047480F000000074027E
:1009A000F00000007406F0000000E4F00000009089
:1009B000E60274E6F000000090E60374F8F0000030
:1009C0000090E670E04440F0000000E490E609F09A
:1009D00000000053B2FE43B20243B20890E618048E
:1009E000F00000007411F000000090E61A7409F0A5
:1009F000000000E490E671F090E672F075B4FF75C7
:100A0000B6BF90E65EE04408F0000000E490E68D9A
:100A1000F090E65EE04404F0000000E490E68FF021
:100A2000C207121663D2811216E3E4FD7F80121012
:100A3000BD7F647E0012126E7D807F801210BDC269
:100A4000047D0D7F401210BD7D787F201210BDE423
:100A5000FD7F101210BDE4FD7F081210BD7D0F7FD9
:100A6000021210BDE4FD7F041210BD1216C690E6FE
:100A70007AE054FEF0E4FD7F901215127F647E0050
:100A800012126E7DFF7F421215127F647E001212D9
:100A90006E7DAF7F4E12151212172975B6BF121454
:070AA000E7D2A053B17F2251
:1013FB00300615753701E539B40105E5B120E6F680
:10140B00120AA7C206E4F5370521D3E5219400742F
:10141B008094884003E4F521E5217004120CE52249
:03142B00D2A0222A
:02008E00D3227B
:0216FE00D322F5
:02170000D322F2
:1012EC0090E680E030E71590E6247402F0000000F0
:1012FC00E490E625F0000000D2048013E490E6248C
:10130C00F000000090E6257440F0000000C204904C
:07131C00E6BAE0F538D32228
:10163F0090E740E538F0E490E68AF090E68B04F00E
:02164F00D322A4
:0816BE0090E6BAE0F525D32205
:1016510090E740E525F0E490E68AF090E68B04F00F
:02166100D32292
:02170200D322F0
:02170400D322EE
:02170600D322EC
:1001300090E6B9E0244B607414700302038924F440
:1001400070030203C424FD700302040C1470030244
:10015000046F1470030204A0241460030204DAE4A0
:1001600090E68AF090E68BF090E6A0E020E1F9902E
:10017000E68BE0F51800000090E6047480F00000C3
:100180000053287FAD28FF1210BD90E6047406F0DE
:10019000000000E4F07F0AFE12126E432880AD28B2
:1001A0007F801210BDD206C2A00204DCE490E68A71
:1001B000F090E68BF090E6A0E020E1F990E68BE08D
:1001C000F518D3943F4024E4F51974402519F582BD
:1001D000E434E7F583E0FF74002519F582E4342761
:1001E000F583EFF00519E519B440DF7F9A7E001220
:1001F0001678902700E0FF7E00121682902700E01C
:10020000FF7E0012168C902700E0FF7E00121696EB
:10021000902701E075F004A4FFAEF01216A090271D
:1002200001E075F004A4FFAEF01216AA902701E0D9
:1002300075F004A4FFAEF01216B4902705E0C39445
:100240000250035328CF902705E0B40208E5285454
:10025000CF2410F528902705E0B40308E52854CFF3
:100260002420F528902705E0B40408E52854CF247D
:1002700030F528902721E070035328B7902721E01C
:10028000B40108E528444054F7F528902721E0B44C
:100290000208E52854BF4408F528902726E0700599
:1002A0005328FD8003432802902707E0FD7F40127A
:1002B00010BD902708E0FD7F201210BD902711E0AF
:1002C000FD7F101210BD902712E0FD7F081210BDB7
:1002D000902723E0F533902720E0F532902724E0A3
:1002E000F53A90272EE0F531902733E0F530A3E082
:1002F000F53D90273AE0F541902706E0F52FE52FF0
:100300007003752F0190270BE0FEA3E07C00240012
:10031000F527EC3EF526A3E0FEA3E02400F53CEC37
:100320003EF53B902707E0FEA3E02400F52CEC3ED1
:10033000F52BA3E0FEA3E02400F53FEC3EF53E9054
:100340002711E0FEA3E02400F536EC3EF5359027BA
:100350000FE0FEA3E02400F52AEC3EF52990272FBC
:10036000E0FEA3E02400F524EC3EF52390271DE0F9
:10037000FD7F021210BD90271EE0FD7F041210BD0C
:1003800090273FE0F5400204DCE4F51974002519DC
:10039000F582E43427F583E0FF74402519F582E403
:1003A00034E7F583EFF00519E519B440DF000000EC
:1003B000E490E68AF000000090E68B7440F012149E
:1003C000E70204DC90E74074AAF0A3740FF0A37472
:1003D0000DF0A37478F0A3740AF0A3740EF0E4A3F4
:1003E000F0A3F0A37411F0300405E4A3F0800690AC
:1003F000E74974FFF0000000E490E68AF000000096
:1004000090E68B740AF01214E70204DC90E678E0C0
:100410004480F090E6797491F07F647E001215FCC0
:1004200090E679E090E740F07F647E001215FC9042
:10043000E679E090E741F07F647E001215FC90E6DB
:1004400079E090E742F07F647E001215FC90E67937
:10045000E090E743F090E678E04440F0000000E4EC
:1004600090E68AF000000090E68B7404F0806DE462
:1004700090E68AF090E68BF090E6A0E020E1F9901B
:10048000E68BE0F518D39401405290E741E0FD7F00
:100490004212151290E740E0FD7F4E121512803C8B
:1004A000E490E68AF090E68BF090E6A0E020E1F997
:1004B00090E68BE0F518D39400402190E740E0707F
:1004C000031216F690E740E0B401031216FA90E723
:0D04D00040E0B402071217298002D322C3B6
:0104DD0022FC
:1015CC00C0E0C083C082D2015391EF90E65D7401FC
:0815DC00F0D082D083D0E03290
:10161300C0E0C083C0825391EF90E65D7404F0D0C4
:0616230082D083D0E0320A
:10162900C0E0C083C0825391EF90E65D7402F0D0B0
:0616390082D083D0E032F4
:10132300C0E0C083C08290E680E030E70E8542468D
:10133300854347854A48854B49800C854A46854BFA
:10134300478542488543495391EF90E65D7410F019
:07135300D082D083D0E0320C
:1015E400C0E0C083C082D2035391EF90E65D7408DB
:0815F400F0D082D083D0E03278
:10135A00C0E0C083C08290E680E030E70E85424656
:10136A00854347854A48854B49800C854A46854BC3
:10137A00478542488543495391EF90E65D7420F0D2
:07138A00D082D083D0E032D5
:010CFF0032C2
:0117080032AE
:0117090032AD
:01170A0032AC
:100DB800C0E0C0F0C083C082C0D075D000C000C001
:100DC80001C002C003C004C005C006C007C2AFE529
:100DD80037705090E678E04480F090E6797491F0AE
:100DE8007F647E001215FC90E679E090E7C0F07F02
:100DF800647E001215FC90E679E090E7C1F07F640C
:100E08007E001215FC90E679E090E7C2F07F647EE0
:100E1800001215FC90E679E090E7C3F090E678E0E0
:100E28004440F090E7C0E537F000000090E68F748A
:100E380004F00000005391EF90E65FE04404F0D224
:100E4800AFD007D006D005D004D003D002D001D04F
:0C0E580000D0D0D082D083D0F0D0E032A7
:100FA100C0E0C0F0C083C082C0D075D000C000C016
:0D0FB10001C002C003C004C005C006C00797
:100FBE00C2AF90E6A1E020E1F990E780E0FF700477
:100FCE00F5228030BFFF07752200D2058026BFFEB6
:100FDE000890E781E0F539801B90E782E0FD7F42C3
:100FEE0012151290E781E0FD7F4E121512E4FD7F7F
:100FFE009012151200000090E68DE4F05391EF90E0
:08100E00E65FE04408F0D2AFF8
:10101600D007D006D005D004D003D002D001D0002E
:0B102600D0D0D082D083D0F0D0E032D8
:01170B0032AB
:01170C0032AA
:01170D0032A9
:01170E0032A8
:01170F0032A7
:0117100032A6
:0117110032A5
:0117120032A4
:0117130032A3
:0117140032A2
:0117150032A1
:0117160032A0
:01171700329F
:01171800329E
:01171900329D
:01171A00329C
:01171B00329B
:01171C00329A
:01171D003299
:01171E003298
:01171F003297
:011720003296
:011721003295
:011722003294
:011723003293
:011724003292
:011725003291
:011726003290
:01172700328F
:01172800328E
:1015FC00AD07AC06ED25E0FDEC33FCED4C6007EDE2
:07160C001D70011C80F52296
:060F0C008C1A8D1BA907E1
:100F1200530107C2A77F0A7E001215FCE4FBFAC345
:100F220074029BFFE9A807088002C313D8FC30E0D3
:100F320004D2A68002C2A67F0A7E001215FCD2A5A8
:100F42001215FCC2A51215FC0BBB00010AEB6403CF
:100F52004A70CCE4FAFBC374099BFFE51BAE1AA8E6
:100F620007088005CEC313CE13D8F930E004D2A609
:100F72008002C2A67F0A7E001215FCD2A51215FCC1
:100F8200C2A51215FC0BBB00010AEB640A4A70C62B
:0E0F9200D2A77F0A7E001215FCC2A71215FC22
:010FA000222E
:0A167800AD07AC06E4FF120F0C22D0
:0A168200AD07AC067F04120F0C2226
:0A168C00AD07AC067F05120F0C221B
:0A169600AD07AC067F06120F0C2210
:0A16A000AD07AC067F01120F0C220B
:0A16AA00AD07AC067F02120F0C2200
:0A16B400AD07AC067F03120F0C22F5
:0410BD008F1DA905D5
:1010C100C2A47F017E001215FCE4FBFAAF03E9A87C
:1010D10007088002C313D8FC30E004D2A68002C204
:1010E100A67F017E001215FCD2A51215FCC2A51225
:1010F10015FC0BBB00010AEB64084A70CFE4FAFB54
:10110100AF03E51DA807088002C313D8FC30E00433
:10111100D2A68002C2A67F017E001215FCD2A512C2
:1011210015FCC2A51215FC0BBB00010AEB64084AB1
:1011310070CEC2A4D2A47F017E001215FCC2A412FB
:0211410015FC9B
:011143002289
:0416EE0053B1FE22D4
:0416F20043B10122DD
:0716CE0053B1FB43B10222FE
:0716D50043B10243B10422FE
:0716DC0053B1FB53B1FD22E5
:0716E3001216F21216D522C7
:100CE5001216F20000001216CE7F3C7E001215FC93
:0A0CF5001216D51216EE1215FC229D
:101586001216CE7FAA7E001215FC1216DC1216F277
:101596007FC81215FC1216EE1216CE7F781215FCB5
:0415A6001216D52222
:1012B400E4F556F557E4FBFA120CE57F467E00127E
:1012C40015FC0BBB00010ABA04EEBB06EBC281306D
:1012D40080FDD2810557E55770020556C39404E595
:0712E400566480948040CEA7
:0112EB0022E0
:1011B6001216EE1216D5E4F51CF51D43B1087F0F85
:1011C6007E001215FCE4FBFA1216F21216CE7F14FC
:1011D6007E001215FC1216D51216EE7F321215FC81
:1011E6000BBB00010AEB641E4A70DD53B1F77F1496
:1011F6007E001215FC1216F21216CE1215FC1216ED
:10120600D51216EE051DE51D7002051CC39410E5EA
:071216001C6480948140A4D8
:01121D0022AE
:0416F60043B180225A
:0416FA0053B17F2247
:0E00800053B1DF7F027E001215FC43B1202237
:100E6400E52A45297003120080E532B40105D20752
:100E7400121663E53070031216F6E533706F7522AF
:100E840001902702E075F040A485F01CF51DAF2207
:100E94007E00AC1CAD1D121193D3EF9400EE9400B0
:100EA40040117F007E041215AAE51D151D70021560
:100EB4001C80DB902703E0751C00F51DAF227E002B
:100EC400AC1CAD1D121193D3EF9400EE94004011AD
:100ED4007F007E011215AAE51D151D7002151C80E8
:100EE400DB902704E0FF7E001215AA800975220119
:100EF400E522640160FAE53070031216FAE532B4B3
:070F04000105C2071216638C
:010F0B0022C3
:100AA700C2A0C205753702E52A45297003121586CB
:100AB700E52A45297003121586E53A7018120E6467
:100AC700D207121663E52A452970031211B6C20729
:100AD700121663800CE52A452970031211B6120E0F
:100AE700641215863005041214E722753703E4F5FE
:100AF70018F519C3E5199527E51895265029E4F542
:100B07001AF51BC3E51B952F7480F8651A98500DCD
:100B1700120CE5051BE51B7002051A80E60519E5B1
:100B2700197002051880CCE531D3940040057F6425
:100B370012153BE4F518F519C3E519953FE5189526
:100B47003E5030C2813080FDD281E4F51AF51BC3D7
:100B5700E51B952F7480F8651A98500D120CE50562
:100B67001BE51B7002051A80E60519E519700205D9
:100B77001880C5E4F518F519C3E519953CE51895EE
:100B87003B5029E4F51AF51BC3E51B952F7480F834
:100B9700651A98500D120CE5051BE51B7002051A26
:100BA70080E60519E5197002051880CCE535FD7F4B
:100BB700401210BDE536FD7F201210BDC281308086
:100BC700FDD281E52BFD7F401210BDE52CFD7F2076
:050BD7001210BDD2A0C8
:010BDC0022F6
:10151200AB05AE0790E678E04480F090E679EEF015
:101522007F647E001215FCEBF01215FC90E678E069
:091532004440F07F641215FC2214
:01172900229D
:1014E700E4F51CF51DD2A07F327E0012126EC2A059
:1014F7007F327E0012126E051DE51D7002051CC3AA
:0A1507009403E51C6480948040DB2F
:0115110022B7
:10153B008F1C432804AD287F801210BDE51C600B67
:10154B00C2813080FDD281151C80F15328FBAD2860
:06155B007F801210BD228A
:0816C600E4F555D2E9D2AF2290
:1013910090E678E020E6F9C2E990E678E04480F052
:1013A100EF25E090E679F090E678E030E0F990E61C
:1013B10078E04440F090E678E020E6F990E678E0C5
:0613C10030E1D6D2E92262
:10142E00A90790E678E020E6F9E555702390E67876
:10143E00E04480F0E925E090E679F08D50AF03A905
:10144E00077551018A528953E4F554755501D3221B
:02145E00C322A7
:1013C700A90790E678E020E6F9E555702590E678DC
:1013D700E04480F0E925E0440190E679F08D50AFD4
:1013E70003A9077551018A528953E4F554755503CA
:0413F700D322C32218
:03004B00020BDDC8
:100BDD00C0E0C083C082C085C084C086758600C059
:100BED00D075D000C000C001C002C003C006C00750
:100BFD0090E678E030E206755506020CC790E6786F
:100C0D00E020E10CE55564026006755507020CC73E
:100C1D00E55524FE605F14603624FE7003020CB8A7
:100C2D0024FC7003020CC424086003020CC7AB51F2
:100C3D00AA52A953AF5405548F82758300121144E3
:100C4D0090E679F0E55465507070755505806B90A0
:100C5D00E679E0AB51AA52A953AE548E827583004A
:100C6D00121171755502E5506401704E90E678E0F1
:100C7D004420F08045E55024FEB5540790E678E019
:100C8D004420F0E55014B5540A90E678E04440F065
:100C9D0075550090E679E0AB51AA52A953AE548E2A
:100CAD00827583001211710554800F90E678E0442F
:100CBD0040F075550080037555005391DFD007D076
:100CCD0006D003D002D001D000D0D0D086D084D0B1
:080CDD0085D082D083D0E03203
:03000000021031BA
:0C103100787FE4F6D8FD75815702107836
:10114400BB010CE58229F582E5833AF583E0225060
:1011540006E92582F8E622BBFE06E92582F8E222AA
:0D116400E58229F582E5833AF583E49322C4
:10117100F8BB010DE58229F582E5833AF583E8F0B4
:10118100225006E92582C8F622BBFE05E92582C860
:02119100F22248
:10119300EF8DF0A4A8F0CF8CF0A428CE8DF0A42E70
:0211A300FE222A
:1011A500EB9FF5F0EA9E42F0E99D42F0E89C45F0A0
:0111B5002217
:10103D00020778E493A3F8E493A34003F68001F24A
:10104D0008DFF48029E493A3F85407240CC8C333B4
:10105D00C4540F4420C8834004F456800146F6DF83
:10106D00E4800B010204081020408090121EE47EE3
:10107D00019360BCA3FF543F30E509541FFEE49378
:10108D00A360010ECF54C025E060A840B8E493A33F
:10109D00FAE493A3F8E493A3C8C582C8CAC583CA6A
:1010AD00F0A3C8C582C8CAC583CADFE9DEE780BE22
:01126D000080
:00000001FF
