:0A13DA0000010202030304040505EC
:1006A800E4F513F512F511F510C203C200C202C237
:1006B800011209D87E0E7F008E298F2A75330E7598
:1006C800341275270E75281C752F0E753035753543
:1006D8000E75364EEE54E070030207EE7514007581
:1006E80015808E168F17C3748A9FFF740E9ECF24B1
:1006F80002CF3400FEE48F0F8E0EF50DF50CF50BCE
:10070800F50AF509F508AF0FAE0EAD0DAC0CAB0B45
:10071800AA0AA909A808C31209A15026E515250B9C
:10072800F582E514350AF58374CDF0E50B2401F55F
:100738000BE4350AF50AE43509F509E43508F50846
:1007480080C4E4F50BF50AF509F508AF0FAE0EAD58
:100758000DAC0CAB0BAA0AA909A808C31209A15031
:1007680033E517250BF582E516350AF583E0FFE535
:1007780015250BF582E514350AF583EFF0E50B2412
:1007880001F50BE4350AF50AE43509F509E43508FD
:10079800F50880B785142985152A74002480FF740C
:1007A8000E34FFFEC3E5349FF534E5339EF533C3BD
:1007B800E52C9FF52CE52B9EF52BC3E52E9FF52EFA
:1007C800E52D9EF52DC3E5289FF528E5279EF527FD
:1007D800C3E5309FF530E52F9EF52FC3E5369FF52D
:1007E80036E5359EF535D2E843D82090E668E044F2
:1007F80009F090E65CE0443DF0D2AFD288D28AC2DC
:10080800A8C2AA90E680E020E105D20812116D90F6
:10081800E680E054F7F0538EF8C203300105120465
:1008280083C201300329120CFD5024C20312124165
:1008380020001690E682E030E704E020E1EF90E641
:1008480082E030E604E020E0E412119C120DFE1272
:040858000CFF80C74A
:1004830090E6B9E070030205341470030205B12449
:10049300FE700302063424FB700302052E1470035E
:1004A3000205281460731460762405600302069421
:1004B3001213F840030206A090E6BBE024FE60227C
:1004C30014603324FD601114602224067048E5296A
:1004D30090E6B3F0E52A8037E53390E6B3F0E534F0
:1004E300802DE52B90E6B3F0E52C8023E52D90E6F7
:1004F300B3F0E52E801990E6BAE0FF1211C8AA0600
:10050300A9077B01EA494B600DEE90E6B3F0EF904B
:10051300E6B4F00206A00206991213C80206A0125E
:1005230013E40206A012138D0206A01213B60206EC
:10053300A01213FA40030206A090E6B8E0247F60FD
:100543001514601924027063A200E43325E0FFA2AE
:1005530002E4334F8041E490E740F0803F90E6BCF3
:10056300E0547EFF7E00E0D394807C0040047D0154
:1005730080027D00EC4EFEED4F24DAF58274133ECB
:10058300F583E493FF3395E0FEEF24A1FFEE34E619
:100593008F82F583E0540190E740F0E4A3F090E606
:1005A3008AF090E68B7402F00206A00206991213F9
:1005B300FC40030206A090E6B8E024FE6016240285
:1005C30060030206A090E6BAE0B40105C200020689
:1005D300A002069990E6BAE0705590E6BCE0547E1E
:1005E300FF7E00E0D394807C0040047D0180027D87
:1005F30000EC4EFEED4F24DAF58274133EF583E4EE
:1006030093FF3395E0FEEF24A1FFEE34E68F82F5EE
:1006130083E054FEF090E6BCE05480131313541FA0
:10062300FFE0540F2F90E683F0E04420F0806E80CB
:10063300651213FE506790E6B8E024FE601A2402A8
:10064300705B90E6BAE0B40104D200805090E6BA41
:10065300E0B402028047803E90E6BCE0547EFF7E19
:1006630000E0D394807C0040047D0180027D00EC97
:100673004EFEED4F24DAF58274133EF583E493FFC7
:100683003395E0FEEF24A1FFEE34E68F82F58380FD
:1006930008120080500790E6A0E04401F090E6A025
:0406A300E04480F0BF
:0106A7002230
:03000300020FA148
:100FA100C0E0C083C082C0D075D000C004C005C0FD
:100FB10006C00790E6017443F0E541703790F000F8
:100FC10074AAF0A37411F0A374CCF0A374EEF090A2
:100FD100E690E4F090E6917405F0300419AF3EAE6E
:100FE1003DAD3CAC3B8F268E258D248C2375220F85
:100FF100D20780021541A283B39283D007D006D0D5
:0C10010005D004D0D0D082D083D0E032E3
:03000B00020C30B4
:100C3000C0E0C0F0C083C082C0D075D000C000C08A
:100C400001C002C003C004C005C006C00785388CBF
:100C500085398AE5226016D2831522E522704C90F0
:100C6000E600E054FDF0000000C283803E30073B08
:100C7000AF26AE25AD24AC23EF24FFF526EE34FFDE
:100C8000F525ED34FFF524EC34FFF523E4FFFEFDFC
:100C9000FCAB26AA25A924A823C31209A1700CC263
:100CA0000790E600E04402F0000000D007D006D034
:100CB00005D004D003D002D001D000D0D0D082D053
:060CC00083D0F0D0E03209
:030033000213F4C1
:0413F40053D8EF32A9
:1013A2000138D101394A043B00000000C107C104E1
:0313B200013FBA3E
:10134B0085388C85398AE58954F04401F589438EBB
:06135B0008D28CD2A92289
:100F1800F07F647E00120F95902001E090E679F052
:100F28007F647E00120F95902002E090E679F07FB2
:100F3800647E00120F95902003E090E679F07F64BC
:100F48007E00120F95902004E090E679F07F647E91
:100F580000120F95902005E090E679F07F647E00FE
:100F6800120F95902006E090E679F07F647E0012DB
:100F78000F95902007E090E679F07F647E00120FCD
:0D0F880095902008E090E679F07F647E00EF
:0C0F9500EF4E6007EF1F70F81E80F52281
:1012880090E6187408F000000090E619F0000000DD
:0F12980090E61AF000000090E61BF00000002224
:1012A70090E6187409F000000090E619F0000000BD
:0F12B70090E61AF000000090E61BF00000002205
:1009D80090E6007412F090E60B7403F000000090AB
:1009E800E6047480F00000007402F0000000740453
:1009F800F00000007406F00000007408F000000029
:100A0800E4F000000000000090E61274E8F0000036
:100A180000E490E613F000000090E614F0000000F7
:100A280090E615F000000090E6187408F000000049
:100A380090E619F000000090E61AF000000090E639
:100A48001BF000000090E6097404F000000090E636
:100A580070E04401F000000090E6727408F00000B5
:100A68000090E6207404F0000000E490E621F00015
:100A7800000090E602F000000090E603F090E60126
:100A88007443F043AF01D20043B20843B20275B5D4
:100A9800F01213EC90E67AE054FEF0E4F5B0C2816F
:100AA8007F64FE120F95D28112134B751D20751E9F
:100AB800337B027D107FA012121C902033E0F54496
:100AC800A3E0F53AE5446401600BE544640260057F
:100AD800E544B40505753FBAC206E54464036005FC
:100AE800E544B40405753FB8C206E54464066005EC
:100AF800E544B41605753F20D206E5446407600551
:100B0800E544B40805753F30D206E544B4090575D7
:100B18003F42C206E4F541D28390E6007402F02217
:010CFF0022D2
:020CFD00D32200
:020DFE00D322FE
:0213F800D322FE
:10138D0090E680E030E704D2058002C20590E6BA0F
:05139D00E0F540D32241
:1013B60090E740E540F0E490E68AF090E68B04F092
:0213C600D32230
:0813E40090E6BAE0F537D322D0
:1013C80090E740E537F0E490E68AF090E68B04F089
:0213D800D3221E
:0213FA00D322FC
:0213FC00D322FA
:0213FE00D322F8
:1000800090E6B9E01209B200BBB300DFB70125B8B2
:10009000017FB9019DBB022CBD026CBF027BC00277
:1000A000A8C10303C20346C8036DC903BBCA03E862
:1000B000CB043ECD046DCF0000047FC2A890E601C2
:1000C0007440F000000090E6047480F000000074BA
:1000D00002F0000000E4F0000000D2A802045D90ED
:1000E000E6BDE0FE90E6BCE07C002400F519EC3EA5
:1000F000F518200617AD1990E6BEE0FB7EE7751DEA
:10010000E7751E40AF3F12121C0203D790E6BEE017
:10011000FB7EE7751EE7751F40AD19AC18AF3F12A7
:1001200011F40203D7E490E68AF090E68BF090E6B3
:10013000A0E020E1F9E4FFFE74402FF58274E73E71
:10014000F583E0FD74002FF58274203EF583EDF019
:100150000FBF00010EEF64134E70DD902000E070C1
:100160000312113E902000E0B4010312100D902004
:1001700000E064026003020481121266020481E45A
:1001800090E68AF090E68BF090E6A0E020E1F9E5B9
:100190003FC313FF7AE77B407D03020439E490E616
:1001A0008AF090E68BF090E6A0E020E1F978137CED
:1001B000207D017B0120062D7AE679BC7E007F013F
:1001C00012092C90E6BEE0FF7E0078147C207D01B1
:1001D0007B017AE7794012092CE53FC313FF90E6D3
:1001E000BEE004803F7AE679BD7E007F0112092CD3
:1001F00078147C207D017B017AE679BC7E007F014A
:1002000012092C90E6BEE0FF7E0078157C207D016F
:100210007B017AE7794012092CE53FC313FF90E692
:10022000BEE02402FD7A207B13020439E490E68AC2
:10023000F090E68BF090E6A0E020E1F990E740E056
:10024000FCA3E0FDA3E0FEA3E0F53E8E3D8D3C8CDB
:100250003BE4FFFEFDFCAB3EAA3DA93CA83BC3121C
:1002600009A17004C204807ED204807AE4F522C21F
:100270000790E600E04402F000000090E6BAE030AB
:10028000E00E90E6BCE05490FFE5B0546F4FF5B03F
:1002900090E6BAE030E10E90E6BCE05460FFE5B0D5
:1002A000549F4FF5B0020474E490E68AF090E68B18
:1002B000F090E6A0E020E1F990E740E0FCA3E0FD4B
:1002C000A3E0FEA3E0F53E8E3D8D3C8C3BE4FFFEBB
:1002D000FDFCAB3EAA3DA93CA83BC31209A170049A
:1002E000C2048002D204E4F522C20775410190E6FF
:1002F00000E04402F0000000E490E68AF000000014
:1003000002047990E74074E4F0A37417F0E4A3F0DA
:10031000A3F0A3F0A20633A3F0A3E53AF0A3E53FD0
:10032000F0A3E544F0300505E4A3F0800690E7492A
:1003300074FFF0000000E490E68AF000000090E610
:100340008B740A020467E490E68AF090E68BF090E2
:10035000E6A0E020E1F990E740E014600C14600BA7
:100360002402600302048180258032803FE490E60D
:100370008AF090E68BF090E6A0E020E1F990E7406B
:10038000E0146019146025240260030204817538AA
:10039000F475395390E6007402F00204817538E870
:1003A0007539A590E600740AF00204817538D1759C
:1003B000394A90E6007412F002048190E6BCE075C0
:1003C0001800F519FD90E6BEE0FB7EE7751DE775A8
:1003D0001E407FA012121CE490E68AF000000090FC
:1003E000E6BEE090E68B807FE490E68AF090E68BB4
:1003F000F090E6A0E020E1F990E6BCE0D39407504D
:100400000302048178137C207D017B017AE679BCAC
:100410007E007F0112092C90E6BEE0FF7E0078147A
:100420007C207D017B017AE7794012092C90E6BEA1
:10043000E004FD7A207B137F501212FF8043E4908A
:10044000E68AF090E68BF090E6A0E020E1F990E7F4
:1004500040E0700512128880031212A7E490E68A29
:10046000F000000090E68BF00000008014C28112C2
:100470000F91D281E490E68AF090E68BF08002D36F
:0204800022C395
:010482002257
:10131B00C0E0C083C082D2015391EF90E65D7401AF
:08132B00F0D082D083D0E03243
:10136100C0E0C083C0825391EF90E65D7404F0D079
:0613710082D083D0E032BF
:10137700C0E0C083C0825391EF90E65D7402F0D065
:0613870082D083D0E032A9
:100CC600C0E0C083C08290E680E030E70E85272B27
:100CD60085282C852F2D85302E800C852F2B853051
:100CE6002C85272D85282E5391EF90E65D7410F004
:070CF600D082D083D0E03270
:10133300C0E0C083C082D2035391EF90E65D74088E
:08134300F0D082D083D0E0322B
:10106B00C0E0C083C08290E680E030E70E85272B7E
:10107B0085282C852F2D85302E800C852F2B8530A8
:10108B002C85272D85282E5391EF90E65D7420F04B
:07109B00D082D083D0E032C7
:0114000032B9
:0114010032B8
:0114020032B7
:0114030032B6
:0114040032B5
:0114050032B4
:0114060032B3
:0114070032B2
:0114080032B1
:0114090032B0
:01140A0032AF
:01140B0032AE
:01140C0032AD
:01140D0032AC
:01140E0032AB
:01140F0032AA
:0114100032A9
:0114110032A8
:0114120032A7
:0114130032A6
:0114140032A5
:0114150032A4
:0114160032A3
:0114170032A2
:0114180032A1
:0114190032A0
:01141A00329F
:01141B00329E
:01141C00329D
:01141D00329C
:01141E00329B
:01141F00329A
:011420003299
:011421003298
:011422003297
:011423003296
:10113E0090E678E04480F090E679E53F120F9090CB
:10114E002001120F8C902002120F8C902003120F90
:0F115E008C90E678E04440F07F647E00020F95AD
:10100D0090E678E04480F090E679E53F120F907419
:10101D0001120F18902009120F8C90200A120F8CBC
:10102D0090200B120F8C90200C120F8C90200D1213
:10103D000F8C90200E120F8C90200F120F8C902081
:10104D0010120F8C902011120F8C902012120F8CF9
:0E105D0090E678E04440F07F647E00020F953C
:1012660090E678E04480F090E679E53F120F9074BE
:101276002B120F1890E678E04440F07F647E00025F
:021286000F95C2
:04121C008F1A8B1C7E
:10122000902035EDF0E51AC313FF7A207B357D0160
:101230001212FFE51AC313FFAB1EAA1DAD1C02124A
:01124000E3CA
:0411F4008F1A8B1DA6
:1011F800EC902035F0EDA3F0E51AC313FF7A207BBD
:10120800357D021212FFE51AC313FFAB1FAA1EADEC
:041218001D0212E3BE
:1012C600A907EC902013F0EDA3F0EAA3F0EBA3F04E
:0D12D600E9C313FF7A207B137D040212FF91
:100E00001201000200000040181621090000010232
:100E100000010A060002000000400100090219005A
:100E200001010080FA0904000001FF00000007052D
:100E300082020004000902190001010080FA09047D
:100E4000000001FF000000070586024000000403C7
:100E5000090414035100480043002D0043004300DF
:100E600044002000200024035100480059003500B0
:100E70002D00490049002000310032002D003500CE
:0C0E80002D0031002000200020000000A8
:10119C0090E682E030E004E020E60B90E682E0305E
:1011AC00E119E030E71590E680E04401F07F147E11
:0C11BC0000120DB890E680E054FEF02216
:1012410090E682E044C0F090E681F043870100001F
:041251000000002277
:10116D0030080990E680E0440AF0800790E680E0C0
:10117D004408F07FDC7E05120DB890E65D74FFF03B
:0F118D0090E65FF05391EF90E680E054F7F02288
:0813EC00E4F54AD2E9D2AF2278
:1010A20090E678E020E6F9C2E990E678E04480F044
:1010B200EF25E090E679F090E678E030E0F990E60E
:1010C20078E04440F090E678E020E6F990E678E0B7
:0610D20030E1D6D2E92254
:10110C00A90790E678E020E6F9E54A702390E678A6
:10111C00E04480F0E925E090E679F08D45AF03A935
:10112C00077546018A478948E4F549754A01D32277
:02113C00C322CC
:1010D800A90790E678E020E6F9E54A702590E678D9
:1010E800E04480F0E925E0440190E679F08D45AFD1
:1010F80003A9077546018A478948E4F549754A03F3
:04110800D322C32209
:03004B00020B287D
:100B2800C0E0C083C082C085C084C086758600C00E
:100B3800D075D000C000C001C002C003C006C00705
:100B480090E678E030E206754A06020C1290E678E4
:100B5800E020E10CE54A64026006754A07020C12BF
:100B6800E54A24FE605F14603624FE7003020C031D
:100B780024FC7003020C0F24086003020C12AB461D
:100B8800AA47A948AF4905498F82758300120952BF
:100B980090E679F0E54965457070754A05806B9077
:100BA800E679E0AB46AA47A948AE498E827583002C
:100BB80012097F754A02E5456401704E90E678E0B7
:100BC8004420F08045E54524FEB5490790E678E0E5
:100BD8004420F0E54514B5490A90E678E04440F031
:100BE800754A0090E679E0AB46AA47A948AE498E17
:100BF8008275830012097F0549800F90E678E044EA
:100C080040F0754A008003754A005391DFD007D041
:100C180006D003D002D001D000D0D0D086D084D066
:080C280085D082D083D0E032B8
:0211C800A90775
:1011CA00AE35AF368F828E83A3E064037017AD010C
:1011DA0019ED7001228F828E83E07C002FFDEC3E98
:0911EA00FEAF0580DF7E007F00EE
:0111F30022D9
:1012E3001210D8E54A24FA600E146006240770F33E
:0C12F300D322E4F54AD322E4F54AD322CA
:1012FF0012110CE54A24FA600E146006240770F3ED
:0C130F00D322E4F54AD322E4F54AD322AD
:100DB8008E188F1990E600E054187012E519240176
:100DC800FFE43518C313F518EF13F519801590E6ED
:100DD80000E05418FFBF100BE51925E0F519E518D8
:100DE80033F518E5191519AE18700215184E600577
:060DF80012125580EE22EC
:101255007400F58690FDA57C05A3E582458370F9AC
:011265002266
:03004300020D00AB
:03005300020D009B
:100D000002131B0002137700021361000213330069
:100D1000020CC60002106B00021400000214010055
:100D2000021402000214030002140400021405005D
:100D3000021406000214070002140800021409003D
:100D400002140A000214010002140B0002140C0029
:100D500002140D0002140E0002140F000214100001
:100D60000214110002140100021401000214010017
:100D700002141200021413000214140002141500CD
:100D800002141600021417000214180002141900AD
:100D900002141A0002141B0002141C0002141D008D
:100DA00002141E0002141F0002142000021421006D
:080DB0000214220002142300CA
:03000000020E8C61
:0C0E8C00787FE4F6D8FD75814A020ED391
:10085C00E709F608DFFA8046E709F208DFFA803E7E
:10086C0088828C83E709F0A3DFFA8032E309F6086B
:10087C00DFFA8078E309F208DFFA807088828C83D3
:10088C00E309F0A3DFFA806489828A83E0A3F60887
:10089C00DFFA805889828A83E0A3F208DFFA804C61
:1008AC0080D280FA80C680D4806980F28033801038
:1008BC0080A680EA809A80A880DA80E280CA8033A1
:1008CC0089828A83ECFAE493A3C8C582C8CCC58319
:1008DC00CCF0A3C8C582C8CCC583CCDFE9DEE780E9
:1008EC000D89828A83E493A3F608DFF9ECFAA9F068
:1008FC00EDFB2289828A83ECFAE0A3C8C582C8CCBE
:10090C00C583CCF0A3C8C582C8CCC583CCDFEADED6
:10091C00E880DB89828A83E493A3F208DFF980CC38
:10092C0088F0EF60010E4E60C388F0ED2402B40431
:10093C000050B9F582EB2402B4040050AF232345D8
:06094C0082239008AC7349
:10095200BB010CE58229F582E5833AF583E022505A
:1009620006E92582F8E622BBFE06E92582F8E222A4
:0D097200E58229F582E5833AF583E49322BE
:10097F00F8BB010DE58229F582E5833AF583E8F0AE
:10098F00225006E92582C8F622BBFE05E92582C85A
:02099F00F22242
:1009A100EB9FF5F0EA9E42F0E99D42F0E89C45F0AC
:0109B1002223
:1009B200D083D082F8E4937012740193700DA3A3D4
:1009C20093F8740193F5828883E4737402936860E8
:0609D200EFA3A3A380DFE8
:100E98000206A8E493A3F8E493A34003F68001F2C2
:100EA80008DFF48029E493A3F85407240CC8C3335B
:100EB800C4540F4420C8834004F456800146F6DF2A
:100EC800E4800B01020408102040809013A2E47E05
:100ED800019360BCA3FF543F30E509541FFEE4931F
:100EE800A360010ECF54C025E060A840B8E493A3E6
:100EF800FAE493A3F8E493A3C8C582C8CAC583CA11
:100F0800F0A3C8C582C8CAC583CADFE9DEE780BEC8
:0113B5000037
:00000001FF

