:0A13FD0000010202030304040505C9
:100B6200E4F535F534F533F532C20FC20CC20EC2CC
:100B72000D12081B75250E752600752D0E752E1289
:100B820075230E75241C752B0E752C3C752F0E7556
:100B9200305CD2E843D82090E668E04409F090E661
:100BA2005CE0443DF0D2AF90E680E020E105D21156
:100BB2001210C390E680E054F7F0538EF8C20F3063
:100BC2000D05120080C20D300F291209FE5024C2F9
:100BD2000F121252200C1690E682E030E704E02059
:100BE200E1EF90E682E030E604E020E0E41211A8B2
:080BF200120DFD12141880C75A
:1000800090E6B9E070030201311470030201AE245E
:10009000FE700302023124FB700302012B14700373
:1000A0000201251460731460762405600302029730
:1000B000121447400302029A90E6BBE024FE60223D
:1000C00014603324FD601114602224067048E52575
:1000D00090E6B3F0E5268037E52D90E6B3F0E52E07
:1000E000802DE52790E6B3F0E5288023E52990E60A
:1000F000B3F0E52A801990E6BAE0FF1211D4AA06FF
:10010000A9077B01EA494B600DEE90E6B3F0EF9052
:10011000E6B4F002029A02025512139102029A12F8
:10012000141002029A12102302029A12137F020282
:100130009A121449400302029A90E6B8E0247F60C4
:100140001514601924027063A20CE43325E0FFA2A9
:100150000EE4334F8041E490E740F0803F90E6BCEE
:10016000E0547EFF7E00E0D394807C0040047D015B
:1001700080027D00EC4EFEED4F24FDF58274133EAF
:10018000F583E493FF3395E0FEEF24A1FFEE34E620
:100190008F82F583E0540190E740F0E4A3F090E60D
:1001A0008AF090E68B7402F002029A020255121451
:1001B0004B400302029A90E6B8E024FE6016240247
:1001C000600302029A90E6BAE0B40105C20C020292
:1001D0009A02025590E6BAE0705590E6BCE0547E73
:1001E000FF7E00E0D394807C0040047D0180027D8E
:1001F00000EC4EFEED4F24FDF58274133EF583E4D2
:1002000093FF3395E0FEEF24A1FFEE34E68F82F5F5
:1002100083E054FEF090E6BCE05480131313541FA7
:10022000FFE0540F2F90E683F0E04420F0806B80D5
:100230002412144D506490E6B8E024FE601C2402A1
:10024000705890E6BAE0B40104D20C804D90E6BA42
:10025000E06402604590E6A0803790E6BCE0547E02
:10026000FF7E00E0D394807C0040047D0180027D0D
:1002700000EC4EFEED4F24FDF58274133EF583E451
:1002800093FF3395E0FEEF24A1FFEE34E68F82F575
:1002900083E04401F080031202A290E6A0E04480D3
:0102A000F06D
:0102A100223A
:030033000209FAC5
:0409FA0053D8EF32AD
:100E00001201000200000040C0168129000001020A
:100E100000010A0600020000004001000902200053
:100E200001010080320904000002FF0000000705F4
:100E300001024000000705820200020009022000B2
:100E400001010080320904000002FF0000000705D4
:100E5000010240000007058202400000040309046B
:100E60000E035100480059004300430044001203A0
:100E700051004800590036002D00500072006F00EC
:020E8000000070
:10059D006080180001020101010201070000000244
:1005AD00000002001332120A080C080000000000BF
:1005BD000000003F010201010102010700000002DD
:1005CD000000020013320A12100C08000000000097
:1005DD000000003F033A030303030307000000027A
:1005ED00000002001332120A080C0800000000007F
:1005FD000000003F033A030303030307000000025A
:10060D000000020013320A12100C08000000000056
:10061D000000003F6024188700000000000000006B
:10062D0000000000000000000000000000000000BD
:10063D00000000000000000000000000471880804E
:06064D00000000CA4E008F
:100AB80090E60174CAF090E6F574FFF0901880E0B3
:100AC80090E6F3F0901881E090E6C3F0901882E089
:100AD80090E6C1F0901883E090E6C2F0901885E0A7
:100AE80090E6C0F0901886E090E6F4F075AF0774D1
:100AF80018F59A7400F59B759DE4E4F59EFF90E661
:100B08007BE090E67CF00FBF80F4000000E490E604
:100B1800C4F000000090E6C5F0901887E090E6C6A3
:100B2800F0901888E090E6C7F0901889E090E6C841
:100B3800F090188AE090E6C9F090188BE090E6CA29
:100B4800F090188CE090E6CBF090188DE090E6CC11
:090B5800F090188EE090E6CDF05B
:010B61002271
:03004300020A00AE
:03005300020A009E
:100A0000020BFA0002132F00021319000212D30086
:100A100002105A00020FE600020DFF0002144F0000
:100A200002145000021451000214520002122C0051
:100A3000021453000214540002145500021456000C
:100A40000214570002144F000214580002145900F7
:100A500002145A0002145B0002145C0002145D00D0
:100A600002145E0002144F0002144F0002144F00E3
:100A700002145F000214600002146100021462009C
:100A8000021463000214640002146500021466007C
:100A900002146700021468000214690002146A005C
:100AA00002146B0002146C0002146D0002146E003C
:080AB00002146F000214700033
:1011A80090E682E030E004E020E60B90E682E03052
:1011B800E119E030E71590E680E04401F07F147E05
:0C11C80000120F1890E680E054FEF022A8
:1012520090E682E044C0F090E681F043870100000E
:041262000000002266
:1010C30030110990E680E0440AF0800790E680E062
:1010D3004408F07FDC7E05120F1890E65D74FFF084
:0F10E30090E65FF05391EF90E680E054F7F02233
:0211D400A90769
:1011D600AE2FAF308F828E83A3E064037017AD010C
:1011E60019ED7001228F828E83E07C002FFDEC3E8C
:0911F600FEAF0580DF7E007F00E2
:0111FF0022CD
:100F18008E3C8F3D90E600E054187012E53D2401A8
:100F2800FFE4353CC313F53CEF13F53D801590E61F
:100F380000E05418FFBF100BE53D25E0F53DE53C0A
:100F480033F53CE53D153DAE3C7002153C4E600561
:060F580012126680EE2279
:101266007400F58690FDA57C05A3E582458370F99B
:011276002255
:02065300C1875D
:10081B0090E600E054E74410F000000090E61074FE
:10082B00A0F000000090E60B7401F090E61274E06B
:10083B00F0000000E490E613F000000090E614F0E6
:10084B0000000090E615F000000090E618740CF024
:10085B0000000090E6047480F00000007402F000C9
:10086B000000E4F0000000120AB8E490E671F075A5
:10087B00B4FF90E672F075B6FF75B1FF90E670F0BD
:10088B0075B2FF75B5FFF5B3D2A212136C90E65E8D
:10089B00E04408F0E490E68DF07F8AFE121407C264
:1008AB0005751006751136751202751354E512C3D2
:1008BB0013F50BE51313F50CE4F50D53B1F7121209
:1008CB007790E60174C8F012112143B00212114E59
:0A08DB0012117B90E60174CAF022AE
:07141800300503120D9522BF
:0209FE00D32202
:020DFD00D322FF
:02144700D322AE
:1010230090E680E030E71590E6207402F0000000BF
:10103300E490E621F0000000D2078013E490E6205C
:10104300F000000090E6217440F0000000C2079019
:07105300E6BAE0F50FD3221D
:10137F0090E740E50FF0E490E68AF090E68B04F0FA
:02138F00D32267
:0814100090E6BAE0F509D322D1
:1013910090E740E509F0E490E68AF090E68B04F0EE
:0213A100D32255
:02144900D322AC
:02144B00D322AA
:02144D00D322A8
:1002A20090E6B9E0244B602824F370030203FF2494
:1002B200F1700302044C241E600302046DD205E4B3
:1002C20090E68AF000000090E68B04F00000002225
:1002D200E490E68AF090E68BF090E6A0E020E1F967
:1002E20090E68BE06418600302046D7F8A7E001240
:1002F200140790E740E0FD7C007F0412074890E776
:1003020047E075F004A4FDACF07F0112074890E7C6
:1003120041E0751400F515A3E0751800F519A3E086
:10032200751600F51790E745E030E703D38001C367
:1003320092A090E745E030E603C38001D39201909A
:10034200E745E030E103D38001C3920A90E745E03C
:1003520030E003D38001C3920690E744E030E70324
:10036200D38001C3920990E744E030E603D38001D1
:10037200C3920090E744E030E303D38001C39202CA
:1003820090E744E030E103D38001C3920B90E7444D
:10039200E030E203D38001C3920330021090E6C042
:1003A200300905749DF08013749FF0800E90E6C0B2
:1003B200300905749CF08003744EF090E746E0F536
:1003C2000ED394014003D38001C39208E50EB40119
:1003D20003D38001C3920490E74EE0F510A3E0F549
:1003E2001190E750E0F512A3E0F513E512C313F5FF
:1003F2000BE51313F50C90E754E0F50D227AE7793B
:10040200407EE77F4074E7F59A7440F59B90E67B67
:100412007473F07416F07403F0741BF07402F074C9
:1004220054F0E4F004F07449F0300704E4F080067C
:1004320090E67B74FFF0E490E68AF000000090E61C
:100442008B740AF000000002112190E74074CFF093
:10045200E490E68AF000000090E68B04F01213F1BB
:0C046200300102C2A212112153B0FD2291
:100BFA00C0E0C083C082C0D075D000C00090E6B902
:100C0A00E0243C60410470637853E690E740F008C2
:100C1A00E6A3F008E6A3F008E6A3F008E6A3F008C6
:100C2A00E6A3F008E6A3F008E6A3F008E6A3F008B6
:100C3A00E6A3F090E68AE4F000000090E68B740ADE
:100C4A00F0000000801C90E68AE4F000000090E6C4
:100C5A008BF000000090E6A0E020E1F990E741E087
:100C6A00F50890E6A0E04480F08002D20D5391EF9F
:100C7A0090E65D7401F0D000D0D0D082D083D0E06D
:010C8A003237
:10131900C0E0C083C0825391EF90E65D7404F0D0C1
:0613290082D083D0E03207
:10132F00C0E0C083C0825391EF90E65D7402F0D0AD
:06133F0082D083D0E032F1
:10105A00C0E0C083C082852B27852C2885288285FD
:10106A002783A37402F085232985242A852A828569
:10107A002983A37407F05391EF90E65D7410F0D0C2
:06108A0082D083D0E032A9
:1012D300C0E0C083C082D20F5391EF90E65D7408E3
:0812E300F0D082D083D0E0328C
:100FE600C0E0C083C08290E680E030E720852327FA
:100FF600852428852882852783A37402F0852B29DA
:10100600852C2A852A82852983A37407F05391EFBC
:0D10160090E65D7420F0D082D083D0E032EF
:010DFF0032C1
:01144F00326A
:011450003269
:011451003268
:011452003267
:10122C00C0E0C083C082C2AF750A0000000090E627
:10123C008DE4F05391EF90E65FE04408F0D2AFD02C
:06124C0082D083D0E032E5
:011453003266
:011454003265
:011455003264
:011456003263
:011457003262
:011458003261
:011459003260
:01145A00325F
:01145B00325E
:01145C00325D
:01145D00325C
:01145E00325B
:01145F00325A
:011460003259
:011461003258
:011462003257
:011463003256
:011464003255
:011465003254
:011466003253
:011467003252
:011468003251
:011469003250
:01146A00324F
:01146B00324E
:01146C00324D
:01146D00324C
:01146E00324B
:01146F00324A
:011470003249
:060748008F368C378D385E
:10074E0075B6FF75B5FF53B07F53360753B1FE7FB5
:10075E000A7E0012136BE4F539F53AC37402953A2A
:10076E00FFE536A807088002C313D8FC30E0054326
:10077E00B104800353B1FB7F0A7E0012136B43B1A9
:10078E00027F0A7E0012136B53B1FD7F0A7E0012A8
:10079E00136B053AE53A70020539C39403E53964E3
:1007AE0080948040B6E4F539F53AC37409953AFF62
:1007BE00E538AE37A807088005CEC313CE13D8F997
:1007CE0030E00543B104800353B1FB7F0A7E001273
:1007DE00136B43B1027F0A7E0012136B53B1FD7F80
:1007EE000A7E0012136B053AE53A70020539C3947E
:1007FE000AE5396480948040B143B1017F0A7E00DE
:0D080E0012136B53B1FE7F0A7E0002136BC4
:09140700AD07AC06E4FF02074842
:101359007F2212136B12143F7F0212136B12142D8A
:021369007F10F3
:01136B00225F
:07141F005380F75380DF2228
:0813C60012141F7F1912136BB2
:0713CE005380F74380202249
:0D13450012136C12142D7F027E0012136B28
:0713520043800843802022C4
:071426005380FE5380FB22FE
:07142D005380FE43800422FE
:071434004380014380042204
:04143B0053807F2239
:04143F004380802244
:041443005380BF22F1
:100ECF007F1912136B1213CE12136B1214261213F7
:100EDF006B12142D12136B12143B7F3C12136B12F7
:100EEF0013527F0212136B12144312136B12143F1F
:100EFF0012136B1213CE12136B12143412136B12D4
:050F0F00143B12136BFE
:040F140043804022B4
:10136C001213CE12143B121434120F144380104378
:03137C00800222CA
:10109000121345120EF31213591213C612136B12C8
:1010A000142612136B12142D12136B1214437F3C6F
:1010B00012136B1214347F02120F0B12136B7F6426
:0310C00002136BAD
:1012EB00121345120EF312135912141F120ECF12B2
:0712FB00136B7F6402136B0B
:10129A00121345120EF31213591213C612136B12BC
:0D12AA00142D120EDD12136B7F6402136B06
:10130200121345120EF31213591213CE120ECF12EC
:07131200136B7F6402136BF3
:1012B70012142D12135212144312143F1213CE128A
:0C12C700143412143B120F1443B108221F
:1013B5007FC8AE071FEE60081212B71212B780F28F
:0113C5002205
:0C13F100C2A17F027E0012136BD2A12269
:10112100E4F536F53743B0027F0A7E00120F1853FB
:10113100B0FD7F0A7E00120F180537E537700205F2
:0C11410036C39405E5366480948040D9E4
:01114D00227F
:10114E00E4F536F53743B0047F057E00120F1853D1
:10115E00B0FB7F057E00120F180537E537700205CC
:0C116E0036C39414E5366480948040D9A8
:01117A002252
:10117B00E4F536F53743B0087F057E00120F1853A0
:10118B00B0F77F057E00120F180537E537700205A3
:0C119B0036C39414E5366480948040D97B
:0111A7002225
:0409A9007F007E7DD0
:0209AD00AC0696
:1009AF0090E6C0E0FBE490E618F090E6C0744EF0DD
:1009BF00EC90E6D0F0000000EF90E6D1F0000000E0
:1009CF0075BB04000000E5BB30E7FB90E6047480C4
:1009DF00F00000007402F0000000E4F0000000904E
:0A09EF00E618740CF090E6C0EBF07F
:0109F90022DB
:100D170043B002200B031213F1A20192A2750A013C
:100D2700E515AE147806C333CE33CED8F9F53B8E2E
:100D37003AAF0A7E00AC3AAD3B12046ED3EF940093
:100D4700EE940040117F007E04120F18E53B153B1F
:100D570070DF153A80DB85183A85193BAF0A7E00AC
:100D6700AC3AAD3B12046ED3EF9400EE9400401101
:100D77007F007E01120F18E53B153B70DF153A80A7
:0D0D8700DBAF17AE16120F18D2A253B0FD4D
:010D9400223C
:100673008E388F39E50E7040E53945387019200AF8
:1006830003120D17200B031213B530030512129A30
:100693008023121302801EE539B50C1CE538B50B17
:1006A3001743B002200B031213B520030512129A4D
:1006B30080031213021209A9E50E64017060E53983
:1006C30045387027120D17200B031213B530030D95
:1006D3003000051212EB801012129A800B300005C5
:1006E30012109080031213021209A9E539650C70E8
:1006F30004E538650B7027120D17200B031213B591
:1007030030030D3000051210908010121302800B7D
:100713003000051212EB800312129A1209A9E50E9A
:1007230064027020E5394538701A200A03120D1748
:10073300200B031213B5200305121090800312122D
:05074300EB1209A922E0
:100D950053B0FB90E6047480F00000007402F0008C
:100DA5000000E4F0000000F536F5370537E537AE0D
:100DB500367002053614FF120673E51090E6D0F082
:100DC500000000E51190E6D1F000000075BB0400BD
:100DD5000000E5BB30E7FB1212B7E50D6003121208
:100DE500B7C3E5379513E536951240BFC20590E6C2
:070DF500487402F043B00452
:010DFC0022D4
:100655000A53FFFFFFFFFFFFFFFFFFFF013F000101
:070665004000013E00C1103E
:03002300020E8248
:100E8200C0E0C0F0C0D075D000C000C007309815D7
:100E9200C298AF3E053E74412FF8A699E53E75F023
:100EA2000A8485F03E30991AC299E53F6540601088
:100EB200E5405407244BF8E6F5990540C21080023C
:0D0EC200D210D007D000D0D0D0F0D0E03258
:10120000D310AF01C3C0D07F807E25120F5EE4F5FE
:101210003FF540F53EC29FD29EC29DD29CC298C26D
:0C12200099D210D2ACC2BCD0D092AF2248
:100F5E00D310AF01C3C0D0C299E4F53FF540C28EA5
:100F6E00C2AB43878053890F438920FCFD7BC0FAB7
:100F7E00F9F8120480A804A905AA06AB077F007E23
:100F8E006C7DDC7C02120FA2EFF404F58DD28ED0B4
:040F9E00D092AF221C
:1010F200D310AF01C3C0D08F311213A3EFC3940832
:1011020040047FFF8014E53F5407244BF8A63105C5
:0F1112003F301004C210D2997F00D0D092AF228C
:0E13D500D310AF01C3C0D0AF3ED0D092AF2234
:0E13E300D310AF01C3C0D08F3ED0D092AF2246
:1013A300D310AF01C3C0D0C3E53F9540FFD0D09267
:0213B300AF2267
:06066C00011D78011AFFD8
:10127700E4F51BF51C75081EC28CF58C758A01E513
:101287008954F04401F589538EF7C28DD28CD2A9C7
:0312970002120040
:03000B000208E503
:1008E500C0E0C0F0C083C082C0D075D000C000C0D9
:0D08F50001C002C003C004C005C006C0075A
:10090200758C00758A01E51B707AE51C249C604D8C
:10091200249C603524C8706C7F6E1210F2751B0027
:10092200751CFA7F641210F27F961210F2E51A65B6
:100932000860597F781210F2AF1D1210F2AF081240
:1009420010F27F051210F280437F731210F2E4FF5F
:100952001213E3E51C151C7002151B802F1213D510
:10096200EF6409701F7F0AAE071FEE600E74412FFD
:10097200F8E6FE74532FF8A60680EC7859E6F51DCA
:0C09820008E6F51AE51C151C7002151B98
:10098E00D007D006D005D004D003D002D001D000BD
:0B099E00D0D0D082D083D0F0D0E03267
:03000000020C8B64
:0C0C8B00787FE4F6D8FD75815C020CD285
:10046E00EF8DF0A4A8F0CF8CF0A428CE8DF0A42EA2
:02047E00FE225C
:10048000E88FF0A4CC8BF0A42CFCE98EF0A42CFC1B
:100490008AF0EDA42CFCEA8EF0A4CDA8F08BF0A499
:1004A0002DCC3825F0FDE98FF0A42CCD35F0FCEBF8
:1004B0008EF0A4FEA9F0EB8FF0A4CFC5F02ECD39BD
:0F04C000FEE43CFCEAA42DCE35F0FDE43CFC222A
:100FA200C2D5E830E70FB2D5E4C39BFBE49AFAE47A
:100FB20099F9E498F8EC30E717B2D5120FD8120578
:100FC2000BE4C39BFBE49AFAE499F9E498F88003F2
:100FD20012050B30D50DE4C39FFFE49EFEE49DFD98
:040FE200E49CFC226D
:100C9700020B62E493A3F8E493A34003F68001F206
:100CA70008DFF48029E493A3F85407240CC8C3335E
:100CB700C4540F4420C8834004F456800146F6DF2D
:100CC700E4800B010204081020408090059DE47E1B
:100CD700019360BCA3FF543F30E509541FFEE49322
:100CE700A360010ECF54C025E060A840B8E493A3E9
:100CF700FAE493A3F8E493A3C8C582C8CAC583CA14
:100D0700F0A3C8C582C8CAC583CADFE9DEE780BECB
:010672000087
:1004CF0075F008758200EF2FFFEE33FECD33CDCCE4
:1004DF0033CCC58233C5829BED9AEC99E582984067
:1004EF000CF582EE9BFEED9AFDEC99FC0FD5F0D644
:1004FF00E4CEFBE4CDFAE4CCF9A88222B800C1B96E
:10050F000059BA002DEC8BF084CFCECDFCE5F0CBAB
:10051F00F97818EF2FFFEE33FEED33FDEC33FCEBE4
:10052F0033FB10D703994004EB99FB0FD8E5E4F99F
:10053F00FA227818EF2FFFEE33FEED33FDEC33FC8C
:10054F00C933C910D7059BE99A4007EC9BFCE99A80
:10055F00F90FD8E0E4C9FAE4CCFB2275F010EF2FC5
:10056F00FFEE33FEED33FDCC33CCC833C810D707C5
:10057F009BEC9AE899400AED9BFDEC9AFCE899F800
:0E058F000FD5F0DAE4CDFBE4CCFAE4C8F92293
:00000001FF
