:0A12F60000010202030304040505D1
:1005F600E4F513F512F511F510C203C200C202C2EA
:1006060001121840120A947E137F008E518F527584
:100616005913755A12754F1375501C755713755823
:100626004A755B13755C78EE54E0700302073D75FE
:1006360014007515808E168F17C374A29FFF74134E
:100646009ECF2402CF3400FEE48F0F8E0EF50DF5FB
:100656000CF50BF50AF509F508AF0FAE0EAD0DACAE
:100666000CAB0BAA0AA909A808C31209215026E552
:1006760015250BF582E514350AF58374CDF0E50BE7
:100686002401F50BE4350AF50AE43509F509E435E4
:1006960008F50880C4E4F50BF50AF509F508AF0F6F
:1006A600AE0EAD0DAC0CAB0BAA0AA909A808C31275
:1006B60009215031AE0AAF0BE5172FF582E5163E3C
:1006C600F583E0FDE5152FF582E5143EF583EDF0A3
:1006D600EF2401F50BE43EF50AE43509F509E435A6
:1006E60008F50880B985145185155274002480FFD9
:1006F600741334FFFEC3E55A9FF55AE5599EF55922
:10070600C3E5549FF554E5539EF553C3E5569FF54F
:1007160056E5559EF555C3E5509FF550E54F9EF5B8
:100726004FC3E5589FF558E5579EF557C3E55C9FBF
:10073600F55CE55B9EF55BD2E843D82090E668E081
:100746004409F090E65CE0443DF0D2AF90E680E0EC
:1007560020E105D20812165990E680E054F7F053CE
:100766008EF8C2033001051203D2C20130032912EA
:100776000FFE5024C203120FD920001690E682E025
:1007860030E704E020E1EF90E682E030E604E02086
:0D079600E0E41216E31219601210B880C7DB
:1003D20090E6B9E07003020483147003020500245E
:1003E200FE700302058324FB700302047D14700374
:1003F200020477146073146076240560030205E238
:1004020012196240030205EE90E6BBE024FE602270
:1004120014603324FD601114602224067048E551F3
:1004220090E6B3F0E5528037E55990E6B3F0E55A2D
:10043200802DE55390E6B3F0E5548023E55590E630
:10044200B3F0E556801990E6BAE0FF12170FAA063C
:10045200A9077B01EA494B600DEE90E6B3F0EF90FD
:10046200E6B4F00205EE0205E71218C60205EE1226
:1004720019290205EE1214D60205EE1218B402056D
:10048200EE12196440030205EE90E6B8E0247F60A4
:100492001514601924027063A200E43325E0FFA260
:1004A20002E4334F8041E490E740F0803F90E6BCA5
:1004B200E0547EFF7E00E0D394807C0040047D0106
:1004C20080027D00EC4EFEED4F24F6F58274123E62
:1004D200F583E493FF3395E0FEEF24A1FFEE34E6CB
:1004E2008F82F583E0540190E740F0E4A3F090E6B8
:1004F2008AF090E68B7402F00205EE0205E712190B
:100502006640030205EE90E6B8E024FE601624027F
:1005120060030205EE90E6BAE0B40105C2000205EE
:10052200EE0205E790E6BAE0705590E6BCE0547E34
:10053200FF7E00E0D394807C0040047D0180027D38
:1005420000EC4EFEED4F24F6F58274123EF583E484
:1005520093FF3395E0FEEF24A1FFEE34E68F82F5A0
:1005620083E054FEF090E6BCE05480131313541F52
:10057200FFE0540F2F90E683F0E04420F0806D807E
:1005820064121968506690E6B8E024FE60192402ED
:10059200705A90E6BAE0B40104D200804F90E6BAF5
:1005A200E064026047803E90E6BCE0547EFF7E003D
:1005B200E0D394807C0040047D0180027D00EC4EFB
:1005C200FEED4F24F6F58274123EF583E493FF3379
:1005D20095E0FEEF24A1FFEE34E68F82F5838008DA
:1005E200120080500790E6A0E04401F090E6A0E0FF
:0305F2004480F052
:0105F50022E3
:0300330002194E61
:04194E0053D8EF3249
:10184000758CE0758AC0E58954F04401F589758E80
:0818500003D28CD2A9D2AF2211
:03000B0002116976
:10116900C0E0C0F0C083C082C0D075D000C000C04C
:1011790001C002C003C004C005C006C007758CE0E9
:10118900758AC0D28CE47F607EEAFDFCAB4EAA4D25
:10119900A94CA84BC31209215019AF4EAE4DAD4C05
:1011A900AC4BEF2401F54EE43EF54DE43DF54CE43E
:1011B9003CF54BE47F01FEFDFCAB4EAA4DA94CA8C2
:1011C9004BC31209217008E5A054F02534F5A0E5B8
:1011D9002B2401FFE4352AFEE4FCFDAB4EAA4DA900
:1011E9004CA84BC3120921700553A0F0C28CD0073B
:1011F900D006D005D004D003D002D001D000D0D081
:09120900D082D083D0F0D0E03295
:1013000012010002000000401816234000000102F4
:1013100000010A06000200000040010009022E0040
:1013200001010080FA0904000004FF000000070525
:1013300001024000000705820200020007050202C8
:101340000002000705810240000009022E00010191
:101350000080FA0904000004FF00000007050102F4
:10136000400000070582024000000705020200025B
:101370000007058102400000040309041003510026
:10138000480059002D00430043004400160351005B
:10139000480059002D0037002000200020002000C8
:0413A0002000000029
:100CC2006080280002050202020202070000000200
:100CD200000002000A2B0B13111511110000000075
:100CE2000000003F020502020202020700000002A9
:100CF200000002000A2B130B09151111000000005D
:100D02000000003F032A030303030307000000025D
:100D1200000002000A2B2B13111511110000000014
:100D22000000003F032A030303030307000000023D
:100D3200000002000A2B130B09151111000000001C
:100D42000000003F6024288700000000000000002F
:100D52000000000000000000000000000000000091
:100D62000000000000000000000000004728808012
:060D7200000011CA4E0052
:100F1D0090E60174CAF090E6F574FFF0902880E039
:100F2D0090E6F3F0902881E090E6C3F0902882E0FF
:100F3D0090E6C1F0902883E090E6C2F0902885E01D
:100F4D0090E6C0F0902886E090E6F4F075AF077457
:100F5D0028F59A7400F59B759DE4E4F59EFF90E6E7
:100F6D007BE090E67CF00FBF80F490E67174FFF0AB
:100F7D00F5B490E672E04480F043B680000000E4E2
:100F8D0090E6C4F000000090E6C5F0902887E09050
:100F9D00E6C6F0902888E090E6C7F0902889E090AA
:100FAD00E6C8F090288AE090E6C9F090288BE09092
:100FBD00E6CAF090288CE090E6CBF090288DE0907A
:0B0FCD00E6CCF090288EE090E6CDF01E
:010FD80022F6
:03004300021000A8
:0300530002100098
:101000000218580002189E0002188800021870008A
:10101000021587000215130002196A0002196B00FD
:1010200002196C0002196D0002129E0002142D00BC
:1010300002196E0002196F00021970000219710086
:101040000219720002196B00021973000219740070
:10105000021975000219760002197700021978004A
:101060000219790002196B0002196B0002196B005A
:1010700002197A0002197B0002197C0002197D0016
:1010800002197E0002197F000219800002198100F6
:1010900002198200021983000219840002198500D6
:1010A00002198600021987000219880002198900B6
:0810B00002198A0002198B00ED
:1016E30090E682E030E004E020E60B90E682E03012
:1016F300E119E030E71590E680E04401F07F147EC5
:0C1703000012149090E680E054FEF022EA
:100FD90090E682E044C0F090E681F043870100008A
:040FE90000000022E2
:1016590030080990E680E0440AF0800790E680E0CF
:101669004408F07FDC7E0512149090E65D74FFF06B
:0F16790090E65FF05391EF90E680E054F7F02297
:02170F00A90728
:10171100AE5BAF5C8F828E83A3E064037017AD0173
:1017210019ED7001228F828E83E07C002FFDEC3E4B
:09173100FEAF0580DF7E007F00A1
:01173A00228C
:101490008E1E8F1F90E600E054187012E51F240185
:1014A000FFE4351EC313F51EEF13F51F801590E6FC
:1014B00000E05418FFBF100BE51F25E0F51FE51EE7
:1014C00033F51EE51F151FAE1E7002151E4E60057A
:0614D000120FED80EE2278
:100FED007400F58690FDA57C05A3E582458370F917
:010FFD0022D1
:100D7800C1850223000002311040C107044700006A
:080D88000000043A0000000025
:0817670090E679F07F057E0099
:10176F008E1E8F1FE51F451E60177F957E00121876
:10177F000F000000000000E51F151F70E7151E8009
:02178F00E32253
:100A940090E600E054E74410F000000000000090ED
:100AA400E61074A0F000000090E60B7401F090E6EC
:100AB4001274E0F0000000E490E613F000000090EF
:100AC400E614F000000090E615F000000090E6182F
:100AD400740CF000000090E6D27402F090E6047406
:100AE40080F00000007402F0000000E4F000000058
:100AF400120F1DE490E671F075B4FF90E672F07584
:100B0400B6FF75B1FF90E670F075B2FFC28CD28764
:100B140012193975230275240000000090E6107440
:100B2400A0F000000000000090E611F0000000902A
:100B3400E65EE04408F0000000E490E68DF090E604
:100B44005EE04404F0000000E490E68FF01216B674
:100B5400C2A17F9A7E001218EA7528007529B4751F
:100B640042017543907531107532B8754506754666
:100B74002C12193190E67AE054FEF0E4FD7F9012D5
:100B840017E27F647E001214907DFF7F421217E209
:100B94007F647E001214907D827F4E1217E27535B9
:100BA400FFE4F53890E782E535F090E781E538F029
:060BB40012195602193966
:1013A400E538D3940040037535FF90E678E0448037
:1013B400F0749112176790E679E090E7C012176A0B
:1013C40090E679E090E7C112176A90E679E090E739
:1013D400C212176A90E679E090E7C312176A90E6A2
:1013E40078E0444012176A90E678E04480F0744252
:1013F40012176790E679E53512176A90E678E044AB
:101404004012176A90E678E04480F090E679744ED2
:1014140012176A90E679E53812176A90E678E04484
:0914240040F07F057E0002176F05
:1010B800E54A2401F54AE43549F549E43548F54857
:1010C800E43547F547E47FE87E03FDFCAB4AAA49CF
:1010D800A948A847C31209217006FD7F901217E29C
:1010E800E4FB7A08F9F8AF4AAE49AD48AC471208B4
:1010F8008FE4FB7A08F9F8120804C3E54A9FFFE574
:10110800499EFEE5489DFDE5479CFCE4FBFAF9F89D
:10111800C31209217003121826E47F207E4EFDFCBD
:10112800AB4AAA49A948A847C3120921700912194C
:10113800521213A4121956E47F407E9CFDFCAB4A60
:10114800AA49A948A847D3120921400CE4F54AF551
:1011580049F548F547121826300403120932C2042B
:011168002264
:020FFE00D322FC
:02196000D32290
:02196200D3228E
:1014D60090E680E030E71800000090E6207402F005
:1014E600000000E490E621F0000000D2058016001E
:1014F6000000E490E620F000000090E6217440F041
:0D150600000000C20590E6BAE0F540D322D7
:1018B40090E740E540F0E490E68AF090E68B04F08F
:0218C400D3222D
:0819290090E6BAE0F527D32295
:1018C60090E740E527F0E490E68AF090E68B04F096
:0218D600D3221B
:02196400D3228C
:02196600D3228A
:02196800D32288
:10008000E4F518F51990E6B9E0244B606D1470039F
:1000900002024824F4700302028024FD700302026D
:1000A000CB14700302031824FD700302034D2416C1
:1000B00060030203CEE490E68AF090E68BF090E6CF
:1000C000A0E020E1F990E68BE0F518E4F5B5F5B392
:1000D00090E60174CAF0E490E6C3F090E6C27411B1
:1000E000F0D20400000090E6047480F00000007478
:1000F00002F0000000E4F00203D0E490E68AF09001
:10010000E68BF090E6A0E020E1F990E68BE0F518B0
:10011000D3943F4024E4F51974402519F582E43462
:10012000E7F583E0FF74AB2519F582E43428F58305
:10013000EFF00519E519B440DF7F8A7E001218EA56
:100140009028ABE0FF7E001218F39028ABE0FF7E12
:10015000001218FC9028ABE0FF7E001219059028D1
:10016000ACE075F004A4FFAEF012190E9028ACE0DC
:1001700075F004A4FFAEF01219179028ACE075F0EA
:1001800004A4FFAEF01219209028B0E0C3940250EE
:10019000139028CCE090E6C07005744EF080167481
:1001A0009CF080119028CCE090E6C07005749FF020
:1001B0008003749DF09028CEE0F5399028CBE0F5CF
:1001C000379028CFE0F5419028D9E0F536A3E0FE3E
:1001D000A3E07C002400F526EC3EF5259028B1E054
:1001E000F533E53370037533019028B6E0FEA3E0E4
:1001F0007C002400F529EC3EF528A3E0FEA3E024D2
:1002000000F543EC3EF5429028B2E0FEA3E0240066
:10021000F532EC3EF531A3E0FEA3E02400F546EC18
:100220003EF5459028BCE0FEA3E02400F53FEC3EFF
:10023000F53E9028BAE0FEA3E02400F530EC3EF550
:100240002FE4FD7F90020347E4F51974AB2519F5FF
:1002500082E43428F583E0FF74402519F582E43404
:10026000E7F583EFF00519E519B40ADF000000E4B3
:1002700090E68AF000000090E68B740AF00203D04A
:1002800090E74074ABF0A37408F0A3740CF0A3746F
:1002900026F0A37407F0A374EEF0A37401F0A37426
:1002A00003F0A37453F0300505E4A3F0800690E753
:1002B0004974FFF0000000E490E68AF0000000902E
:1002C000E68B740AF01216B60203D090E678E0448A
:1002D00080F0749112180790E679E090E7401218C8
:1002E0000A90E679E090E74112180A90E679E090EA
:1002F000E74212180A90E679E090E743F090E6783A
:10030000E04440F0000000E490E68AF00000009035
:10031000E68B7404F00203D0E490E68AF090E68B5A
:10032000F090E6A0E020E1F990E68BE0F518D39498
:100330000150030203D090E741E0FD7F421217E233
:1003400090E740E0FD7F4E1217E20203D0E490E612
:100350008AF090E68BF090E6A0E020E1F990E68B41
:10036000E0F518D39401406890E740E05480C4134E
:100370001313540124FF92A3E05440C413135403F5
:1003800024FF92A2E05420C413540724FF92A1E05A
:100390005410C4540F24FF92A0A3E075F00AA4FFE8
:1003A000AEF012149090E740E05408131313541F5A
:1003B00024FF92A3E054041313543F24FF92A2E0BD
:1003C0005402C31324FF92A1E01392A08002D3220F
:0103D000C369
:0103D1002209
:10185800C0E0C083C082D2015391EF90E65D74016D
:08186800F0D082D083D0E03201
:10188800C0E0C083C0825391EF90E65D7404F0D04D
:0618980082D083D0E03293
:10189E00C0E0C083C0825391EF90E65D7402F0D039
:0618AE0082D083D0E0327D
:10158700C0E0C083C08285575385585485548285EF
:101597005383A37402F0854F55855056855682852F
:1015A7005583A37407F05391EF90E65D7410F0D064
:0615B70082D083D0E03277
:10187000C0E0C083C082D2035391EF90E65D74084C
:08188000F0D082D083D0E032E9
:10151300C0E0C083C08290E680E030E720854F536F
:10152300855054855482855383A37402F08557559F
:10153300855856855682855583A37407F05391EFDA
:0D15430090E65D7420F0D082D083D0E032BD
:01196A00324A
:01196B003249
:01196C003248
:01196D003247
:10129E00C0E0C0F0C083C082C0D075D000C000C016
:1012AE0001C002C003C004C005C006C007C2AF1211
:1012BE00195200000090E68F7404F0000000539164
:1012CE00EF90E65FE04404F0121956D2AFD007D08B
:1012DE0006D005D004D003D002D001D000D0D0D09B
:0812EE0082D083D0F0D0E03281
:0D142D00C0E0C083C082C0D075D000C007F1
:10143A00C2AF90E6A1E020E1F990E780E0146010E5
:10144A002404601A24FE601A14701C752200801786
:10145A0090E782E0F53590E781E0F5388009C28CA3
:10146A008005752200D20600000090E68DE4F05354
:0B147A0091EF90E65FE04408F0D2AF75
:0B148500D007D0D0D082D083D0E0325E
:01196E003246
:01196F003245
:011970003244
:011971003243
:011972003242
:011973003241
:011974003240
:01197500323F
:01197600323E
:01197700323D
:01197800323C
:01197900323B
:01197A00323A
:01197B003239
:01197C003238
:01197D003237
:01197E003236
:01197F003235
:011980003234
:011981003233
:011982003232
:011983003231
:011984003230
:01198500322F
:01198600322E
:01198700322D
:01198800322C
:01198900322B
:01198A00322A
:01198B003229
:060D91008F1A8C1B8D1C63
:100D9700531A0753A0BF7F0A7E0012180FE4F51DF0
:100DA700F51EC37402951EFFE51AA807088002C343
:100DB70013D8FC30E00543A020800353A0DF7F0A4F
:100DC7007E0012180F43A0107F0A7E0012180F53DF
:100DD700A0EF7F0A7E0012180F051EE51E700205A0
:100DE7001DC39403E51D6480948040B6E4F51DF5AA
:100DF7001EC37409951EFFE51CAE1BA807088005D6
:100E0700CEC313CE13D8F930E00543A02080035397
:100E1700A0DF7F0A7E0012180F43A0107F0A7E0012
:100E270012180F53A0EF7F0A7E0012180F051EE558
:100E37001E7002051DC3940AE51D6480948040B1AD
:100E470043A0407F0A7E0012180F53A0BF7F0A7E7F
:040E57000002180F6E
:0918EA00AD07AC06E4FF020D910C
:0918F300AD07AC067F04020D9163
:0918FC00AD07AC067F05020D9159
:09190500AD07AC067F06020D914E
:09190E00AD07AC067F01020D914A
:09191700AD07AC067F02020D9140
:09192000AD07AC067F03020D9136
:1017E2008D1AAD0790E678E04480F0ED121807906C
:1017F200E679E51A12180A90E678E04440F07F6430
:051802007E0002180F3A
:0818070090E679F07F647E0099
:10180F00EF7803C333CE33CED8F9FFEF4E6007EF37
:07181F001F70F81E80F52286
:03195A00C2822224
:03195D00D2822211
:05193F00C280D28122EC
:05194400D280D28122D7
:05194900C280C28122F2
:0619390012195A021944C4
:1018260012193F12195D7F037E0012180F12195A02
:0A1836001219447F037E0002180F10
:1018D800E4FDFC1218260DBD00010CBC08F5BD186E
:0118E800F20D
:0118E90022DC
:1016880012193F7F057E0012180F12194912195DB1
:101698007F057E0012180F12193F12195A7F057E16
:0E16A8000012180F1219447F057E0002180F61
:01198C002238
:1016B600E4F51AF51B43B1807F1E7E001214905389
:1016C600B17F7F1E7E00121490051BE51B7002057C
:0C16D6001AC39405E51A6480948040D982
:0116E20022E5
:0419520043B18022FB
:0419560053B17F22E8
:01198D002237
:01198E002236
:100E5B00E4FFFEE53BFDE4FCFB7A01F9F812088F99
:100E6B00E4FB7A01F9F812088F8F2CE4FFE53CFEC6
:100E7B00E4FDFCFB7A01F9F812088F8F2EE53DFF9C
:100E8B00E48F2DE537B40102C28712198DE5397055
:100E9B006D752201E52C75F040A485F01CF51DAF96
:100EAB00227E00AC1CAD1D1207F2D3EF9400EE9422
:100EBB000040147FC47E0312176F1213A4E51D1597
:100ECB001D70DC151C80D8751C00852E1DAF227E75
:100EDB0000AC1CAD1D1207F2D3EF9400EE94004052
:100EEB00147FC47E0012176F1213A4E51D151D701D
:100EFB00DC151C80D8AF2D7E001214908009752252
:100F0B0001E522640160FA12198EE537B40102D2B1
:010F1B00874E
:010F1C0022B2
:10173B00AD07AC06D3ED9400EC9400401E00000006
:10174B00EE90E6D0F0000000ED90E6D1F000000046
:0C175B0075BB04000000E5BB30E7FB227A
:081550008C1C8D1DAB07AA06DF
:10155800E4FDFCC3ED951DEC951C5022EA90E6D005
:10156800F0000000EB90E6D1F000000075BB06002B
:0E1578000000E5BB30E7FB0DBD00010C80D587
:011586002242
:10179100AD07AC06000000ED25E0EC3390E6D0F09B
:1017A100000000ED25E090E6D1F000000075BB04DB
:0917B100000000E5BB30E7FB225B
:10093200C2A3121956C2069028AEE0FFE4FCFDFEE7
:10094200FB7A01F9F8120804C004C005C006C0070A
:100952009028ADE0FFE4FCFDFEFBFA7901F81208F5
:1009620004D003D002D001D000EF2BFBEE3AFAED17
:1009720039F9EC38F89028AFE0FFE4FCFDFEEB2FEC
:10098200F53DEE3AF53CED39F53BEC38F53AE47FCE
:100992006CAB3DAA3CA93BA83AD3120921402FE5F2
:1009A2003D2494F53DE53C34FFF53CE53B34FFF551
:1009B2003BE53A34FFF53AE530452F7003121688CD
:1009C200120E5BE530452F701A1218D88015E530EB
:1009D200452F70031218D8E530452F700312168880
:1009E200120E5B121688121952300603020A93E4A1
:1009F200F51AF51BC3E51B9529E51A9528500D122A
:100A02001826051BE51B70EC051A80E8E536D39421
:100A120000400CE536FD7C00AF32AE31121550D3EA
:100A2200E5269400E52594004007AF26AE2512176F
:100A320091E4F518F519C3E5199546E51895455061
:100A42002C1217BAE4F51AF51BC3E51B9533748013
:100A5200F8651A98500D121826051BE51B70EA0559
:100A62001A80E60519E51970CD051880C9E4F51A52
:100A7200F51BC3E51B9543E51A9542500D12182646
:100A8200051BE51B70EC051A80E8AF3FAE3E12175E
:010A92003B28
:010A93002240
:1017BA00000000E53225E0E5313390E6D0F0000084
:1017CA0000E53225E090E6D1F000000075BB040088
:0817DA000000E5BB30E7FB2233
:08193100E4F562D2E9D2AF2215
:1015BD0090E678E020E6F9C2E990E678E04480F024
:1015CD00EF25E090E679F090E678E030E0F990E6EE
:1015DD0078E04440F090E678E020E6F990E678E097
:0615ED0030E1D6D2E92234
:10162700A90790E678E020E6F9E562702390E6786E
:10163700E04480F0E925E090E679F08D5DAF03A9FD
:1016470007755E018A5F8960E4F561756201D322DF
:02165700C322AC
:1015F300A90790E678E020E6F9E562702590E678A1
:10160300E04480F0E925E0440190E679F08D5DAF98
:1016130003A907755E018A5F8960E4F5617562035A
:04162300D322C322E9
:03004B00020BBAEB
:100BBA00C0E0C083C082C085C084C086758600C07C
:100BCA00D075D000C000C001C002C003C006C00773
:100BDA0090E678E030E206756206020CA490E678A8
:100BEA00E020E10CE56264026006756207020CA46B
:100BFA00E56224FE605F14603624FE7003020C95E1
:100C0A0024FC7003020CA124086003020CA4AB5E4E
:100C1A00AA5FA960AF6105618F827583001207A37D
:100C2A0090E679F0E561655D7070756205806B909C
:100C3A00E679E0AB5EAA5FA960AE618E8275830039
:100C4A001207D0756202E55D6401704E90E678E0A5
:100C5A004420F08045E55D24FEB5610790E678E022
:100C6A004420F0E55D14B5610A90E678E04440F06E
:100C7A0075620090E679E0AB5EAA5FA960AE618E0C
:100C8A00827583001207D00561800F90E678E044F0
:100C9A0040F075620080037562005391DFD007D07F
:100CAA0006D003D002D001D000D0D0D086D084D0D4
:080CBA0085D082D083D0E03226
:03000000021212D7
:0C121200787FE4F6D8FD75816202125965
:1007A300BB010CE58229F582E5833AF583E022500B
:1007B30006E92582F8E622BBFE06E92582F8E22255
:0D07C300E58229F582E5833AF583E493226F
:1007D000F8BB010DE58229F582E5833AF583E8F05F
:1007E000225006E92582C8F622BBFE05E92582C80B
:0207F000F222F3
:1007F200EF8DF0A4A8F0CF8CF0A428CE8DF0A42E1B
:02080200FE22D4
:10080400E88FF0A4CC8BF0A42CFCE98EF0A42CFC93
:100814008AF0EDA42CFCEA8EF0A4CDA8F08BF0A411
:100824002DCC3825F0FDE98FF0A42CCD35F0FCEB70
:100834008EF0A4FEA9F0EB8FF0A4CFC5F02ECD3935
:0F084400FEE43CFCEAA42DCE35F0FDE43CFC22A2
:1008530075F008758200EF2FFFEE33FECD33CDCC5C
:1008630033CCC58233C5829BED9AEC99E5829840DF
:100873000CF582EE9BFEED9AFDEC99FC0FD5F0D6BC
:10088300E4CEFBE4CDFAE4CCF9A88222B800C1B9E6
:100893000059BA002DEC8BF084CFCECDFCE5F0CB24
:1008A300F97818EF2FFFEE33FEED33FDEC33FCEB5D
:1008B30033FB10D703994004EB99FB0FD8E5E4F918
:1008C300FA227818EF2FFFEE33FEED33FDEC33FC05
:1008D300C933C910D7059BE99A4007EC9BFCE99AF9
:1008E300F90FD8E0E4C9FAE4CCFB2275F010EF2F3E
:1008F300FFEE33FEED33FDCC33CCC833C810D7073E
:100903009BEC9AE899400AED9BFDEC9AFCE899F878
:0E0913000FD5F0DAE4CDFBE4CCFAE4C8F9220B
:10092100EB9FF5F0EA9E42F0E99D42F0E89C45F02C
:0109310022A3
:10121E000205F6E493A3F8E493A34003F68001F2EB
:10122E0008DFF48029E493A3F85407240CC8C333D1
:10123E00C4540F4420C8834004F456800146F6DFA0
:10124E00E4800B0102040810204080900CC2E47E62
:10125E00019360BCA3FF543F30E509541FFEE49395
:10126E00A360010ECF54C025E060A840B8E493A35C
:10127E00FAE493A3F8E493A3C8C582C8CAC583CA87
:10128E00F0A3C8C582C8CAC583CADFE9DEE780BE3F
:010D90000062
:00000001FF
