:0A17170000010202030304040505AB
:10084B00E4F513F512F511F510C203C200C202C292
:10085B0001120A257E007F908E428F43754A0075E8
:10086B004BA27540007541AC7548007549DA754C63
:10087B0001754D0890E680E030E70E8540448541D8
:10088B0045854846854947800C85484485494585BB
:10089B004046854147EE54E070030209BE751400D3
:1008AB007515807E007F908E168F17C3742E9FFF59
:1008BB0074019ECF2402CF3400FEE48F0F8E0EF511
:1008CB000DF50CF50BF50AF509F508AF0FAE0EADEE
:1008DB000DAC0CAB0BAA0AA909A808C3120DEC505E
:1008EB002AE515250BF582E514350AF58374CDF051
:1008FB00E4FAF9F8E50B2401F50BEA350AF50AE9F8
:10090B003509F509E83508F50880C0E4F50BF50A5B
:10091B00F509F508AF0FAE0EAD0DAC0CAB0BAA0A7B
:10092B00A909A808C3120DEC5037E517250BF58262
:10093B00E516350AF583E0FFE515250BF582E51481
:10094B00350AF583EFF0E4FAF9F8E50B2401F50B22
:10095B00EA350AF50AE93509F509E83508F508809D
:10096B00B385144285154374902480FF740034FFC3
:10097B00FEC3E54B9FF54BE54A9EF54AC3E5459F04
:10098B00F545E5449EF544C3E5479FF547E5469E8F
:10099B00F546C3E5419FF541E5409EF540C3E5496A
:1009AB009FF549E5489EF548C3E54D9FF54DE54C50
:1009BB009EF54CD2E843D82090E668E04409F090CD
:1009CB00E65CE0443DF0D2AF90E680E020E105D25A
:1009DB000712148F90E680E054F7F0538EF8C203A1
:1009EB003001051205A9C2013003291217985024B2
:1009FB00C2031215E920001690E682E030E704E00E
:100A0B0020E1EF90E682E030E604E020E0E412150E
:090A1B001812179A12176780C720
:010A240022AF
:1005A90090E6B9E0700302068514700302072E2451
:1005B900FE70030207C624FB700302067F14700352
:1005C90002067914700302066D147003020673247F
:1005D90005600302083712179C400302084390E69E
:1005E900BBE024FE602C14604724FD6016146031C2
:1005F90024067066E54290E6B3F0E54390E6B4F070
:10060900020843E54A90E6B3F0E54B90E6B4F00200
:100619000843E54490E6B3F0E54590E6B4F00208F6
:1006290043E54690E6B3F0E54790E6B4F0020843A7
:1006390090E6BAE0FF121544AA06A9077B01EA4928
:100649004B600DEE90E6B3F0EF90E6B4F00208438C
:1006590090E6A0E04401F002084390E6A0E04401DE
:10066900F00208431216CD0208431217700208431C
:1006790012134E0208431216BB02084312179E407A
:100689000302084390E6B8E0247F602B14603C2401
:10069900026003020724A200E433FF25E0FFA2025F
:1006A900E4334F90E740F0E4A3F090E68AF090E657
:1006B9008B7402F0020843E490E740F0A3F090E65F
:1006C9008AF090E68B7402F002084390E6BCE0548D
:1006D9007EFF7E00E0D3948040067C007D0180048B
:1006E9007C007D00EC4EFEED4F2417F58274173E19
:1006F900F583E493FF3395E0FEEF24A1FFEE34E6A2
:100709008F82F583E0540190E740F0E4A3F090E68E
:100719008AF090E68B7402F002084390E6A0E04468
:1007290001F00208431217A0400302084390E6B8FB
:10073900E024FE601D2402600302084390E6BAE04B
:10074900B40105C20002084390E6A0E04401F002AA
:10075900084390E6BAE0705990E6BCE0547EFF7E0B
:1007690000E0D3948040067C007D0180047C007DFC
:1007790000EC4EFEED4F2417F58274173EF583E425
:1007890093FF3395E0FEEF24A1FFEE34E68F82F567
:1007990083E054FEF090E6BCE05480FF1313135439
:1007A9001FFFE0540F2F90E683F0E04420F0020889
:1007B9004390E6A0E04401F0020843807D1217A2AD
:1007C900507890E6B8E024FE60232402706C90E62D
:1007D900BAE0B40104D200806190E6BAE0B4020440
:1007E9008058805690E6A0E04401F0804D90E6BC28
:1007F900E0547EFF7E00E0D3948040067C007D01BA
:1008090080047C007D00EC4EFEED4F2417F58274C8
:10081900173EF583E493FF3395E0FEEF24A1FFEE45
:1008290034E68F82F583E04401F0800E800C1201DA
:1008390030500790E6A0E04401F090E6A0E0448043
:01084900F0BE
:01084A00228B
:0300330002008C3C
:04008C0053D8EF3224
:100090001201000200000040181601830000010256
:1000A00000010A06000200000040010009022E00C3
:1000B000010100A0FA0904000004FF000000070588
:1000C0000102400000070586020002000705020247
:1000D0000002000705810240000009022E00010114
:1000E00000A0FA0904000004FF0000000705010257
:1000F000400000070586024000000705020240009C
:100100000007058102400000040309040E035100AA
:1001100048005900430043004400140351004800C4
:1001200059002D003900540020002000200000005C
:03004300020E00AA
:03005300020E009A
:100E0000021648000216A50002168F0002166000A6
:100E1000021385000213BC000217A4000217A500EC
:100E20000217A6000217A700020EB8000211BD00AB
:100E30000217A8000217A9000217AA000217AB00A8
:100E40000217AC000217A5000217AD000217AE0092
:100E50000217AF000217B0000217B1000217B2006C
:100E60000217B3000217A5000217A5000217A5007C
:100E70000217B4000217B5000217B6000217B70038
:100E80000217B8000217B9000217BA000217BB0018
:100E90000217BC000217BD000217BE000217BF00F8
:100EA0000217C0000217C1000217C2000217C300D8
:080EB0000217C4000217C5007F
:1015180090E682E030E004E020E60B90E682E030DE
:10152800E119E030E71590E680E04401F07F147E91
:0C1538000012124290E680E054FEF02207
:1015E90090E682E044C0F090E681F0438701000074
:0415F90000000022CC
:10148F0030070990E680E0440AF0800790E680E09C
:10149F004408F07FDC7E0512124290E65D74FFF087
:0F14AF0090E65FF05391EF90E680E054F7F02263
:02154400A907F5
:10154600AE4CAF4D8F828E83A3E064037017AD015E
:1015560019ED7001228F828E83E07C002FFDEC3E18
:09156600FEAF0580DF7E007F006E
:01156F002259
:101242008E1E8F1F90E600E054187012E51F2401D5
:10125200FFE4351EC313F51EEF13F51F801590E64C
:1012620000E05418FFBF100BE51F25E0F51FE51E37
:1012720033F51EE51F151FAE1E7002151E4E6005CA
:061282001215FD80EE22B2
:1015FD007400F58690FDA57C05A3E582458370F901
:01160D0022BA
:10128800022A1A0002250000023A0000023D03F774
:10129800023600000222000002280000012E01018F
:1012A8003400013300013900013C00013200022CF6
:1012B8000000013FA0013100012700013500012F86
:0312C80000C1065C
:100A250090E6007412F090E6017443F00000009027
:100A3500E61074A0F000000000000090E611F00040
:100A4500000000000090E612F0000000E490E613BC
:100A5500F000000090E61474E0F0000000E490E679
:100A650015F000000090E6047480F00000007402A8
:100A7500F00000007406F0000000E4F000000090B3
:100A8500E60274E6F000000090E60374F8F000005A
:100A95000090E670E04440F0000000E490E609F0C4
:100AA50000000043B20F43B24090E61804F0000086
:100AB500007411F000000090E61A7409F0000000BF
:100AC500E490E671F090E672F075B4FF75B6FF75C7
:100AD500B67F43B18090E65EE04408F0000000E494
:100AE50090E68DF090E65EE04404F0000000E490AE
:100AF500E68FF053B2FED28112178043B120E4FD98
:100B05007F801211367F647E001212427D807F80C5
:100B15001211367F9A7E00121721C2047D0D7F4087
:100B25001211367D787F20121136E4FD7F101211E7
:100B350036E4FD7F081211367DC07F02121136E4BE
:100B4500FD7F0412113612177890E67AE054FEF014
:100B5500E4FD7F9012159AE4F52F12160E12170C6C
:070B65001216F6E4F5302240
:09176700300605120B6CC20622CB
:02179800D3225A
:02179A00D32258
:02179C00D32256
:10134E0090E680E030E71590E6247402F00000008D
:10135E00E490E625F0000000D2048013E490E62429
:10136E00F000000090E6257440F0000000C20490EA
:07137E00E6BAE0F538D322C6
:1016BB0090E740E538F0E490E68AF090E68B04F092
:0216CB00D32228
:0817700090E6BAE0F524D32253
:1016CD0090E740E524F0E490E68AF090E68B04F094
:0216DD00D32216
:02179E00D32254
:0217A000D32252
:0217A200D32250
:1001300090E6B9E0244B70030201BD147003020382
:100140009C24F570030203D714700302048B24FD72
:1001500070030204D3147003020536147003020501
:1001600067241460030205A5E490E68AF090E68B0C
:10017000F090E6A0E020E1F990E68BE0F5180000B1
:100180000090E6047480F000000053277FAD27FF45
:1001900012113690E6047406F0000000E4F090E7D7
:1001A00040E0FF7E00121242432780AD277F80127D
:1001B0001136D2061217011216EB0205A7E490E6DB
:1001C0008AF090E68BF090E6A0E020E1F990E68BD3
:1001D000E0F518D3943F4024E4F51974402519F54F
:1001E00082E434E7F583E0FF74002519F582E434F6
:1001F00022F583EFF00519E519B440DF7F9A7E0000
:10020000121721902200E0FF7E0012172B9022008F
:10021000E0FF7E00121735902200E0FF7E001217EB
:100220003F902201E075F004A4FFAEF01217499050
:100230002201E075F004A4FFAEF0121753902201E2
:10024000E075F004A4FFAEF012175D902205E0C344
:10025000940250035327CF902205E0B40208E5270B
:1002600054CF2410F527902205E0B40308E5275465
:10027000CF2420F527902205E0B40408E52754CFC9
:100280002430F527902221E070035327B7902221D4
:10029000E0B40108E527444054F7F527902221E017
:1002A000B40208E52754BF4408F527902226E070E1
:1002B000055327FD8003432702902207E0FD7F407E
:1002C000121136902208E0FD7F2012113690221183
:1002D000E0FD7F10121136902212E0FD7F0812110E
:1002E00036902223E0F534902220E0F5339022244A
:1002F000E0F53990222EE0F532902233E0F531A37B
:10030000E0F53C90223AE0F53F902206E0F52EE53C
:100310002E7003752E0190220BE0FEA3E07C0024DA
:1003200000F526EC3EF525A3E0FEA3E02400F53B16
:10033000EC3EF53A902207E0FEA3E02400F52BEC1A
:100340003EF52AA3E0FEA3E02400F53EEC3EF53D99
:10035000902211E0FEA3E02400F537EC3EF5369044
:10036000220FE0FEA3E02400F529EC3EF5289022C0
:100370002FE0FEA3E02400F523EC3EF52290221DA1
:10038000E0FD7F0212113690221EE0FD7F04121163
:1003900036902235E0540FF52F0205A7E4F51974C5
:1003A000002519F582E43422F583E0FF7440251915
:1003B000F582E434E7F583EFF00519E519B440DF81
:1003C000000000E490E68AF000000090E68B7440A4
:1003D000F01214EB0205A7E490E68AF090E68BF0A9
:1003E00090E6A0E020E1F990E68BE0F518D39400C8
:1003F00050030205A712178B1217877FE67E0012A3
:10040000124212178B7F027E001212427F647E001E
:10041000121678E4F519C374079519FF90E740E0C8
:10042000FEA807088002C313D8FC20E00512178736
:10043000800312178B7F0A7E001212427F047E0116
:100440001216780519E519C3940840CAE4F519C3D2
:1004500074079519FF90E741E0FEA807088002C3E2
:1004600013D8FC20E005121787800312178B7F0A30
:100470007E001212427F047E011216780519E519DA
:10048000C3940840CA12178B0205A790E74074E195
:10049000F0A37410F0A3740DF0A37478F0A3740AA1
:1004A000F0A3740EF0E4A3F0A3F0A37483F030047F
:1004B00005E4A3F0800690E74974FFF0000000E433
:1004C00090E68AF000000090E68B740AF01214EBBC
:1004D0000205A790E678E04480F090E6797491F008
:1004E0007F647E0012167890E679E090E740F07F16
:1004F000647E0012167890E679E090E741F07F6420
:100500007E0012167890E679E090E742F07F647EF4
:100510000012167890E679E090E743F090E678E0F4
:100520004440F0000000E490E68AF000000090E60D
:100530008B7404F08071E490E68AF090E68BF09082
:10054000E6A0E020E1F990E68BE0F518D3940140B5
:100550005690E741E0FD7F4212159A90E740E0FD9A
:100560007F4E12159A8040E490E68AF090E68BF078
:1005700090E6A0E020E1F990E68BE0F518D3940036
:10058000402590E740E0700312008090E740E0B41F
:100590000107E52F70031216DF90E740E0B4020771
:0805A00012160E8002D322C3E3
:0105A8002230
:10164800C0E0C083C082D2015391EF90E65D74017F
:08165800F0D082D083D0E03213
:10168F00C0E0C083C0825391EF90E65D7404F0D048
:06169F0082D083D0E0328E
:1016A500C0E0C083C0825391EF90E65D7402F0D034
:0616B50082D083D0E03278
:10138500C0E0C083C08290E680E030E70E8540442F
:10139500854145854846854947800C8548448549AA
:1013A500458540468541475391EF90E65D7410F0C1
:0713B500D082D083D0E032AA
:10166000C0E0C083C082D2035391EF90E65D74085E
:08167000F0D082D083D0E032FB
:1013BC00C0E0C083C08290E680E030E70E854044F8
:1013CC00854145854846854947800C854844854973
:1013DC00458540468541475391EF90E65D7420F07A
:0713EC00D082D083D0E03273
:0117A4003212
:0117A5003211
:0117A6003210
:0117A700320F
:100EB800C0E0C0F0C083C082C0D075D000C000C000
:100EC80001C002C003C004C005C006C007C2AFE528
:100ED800306402605090E678E04480F090E67974DF
:100EE80091F07F647E0012167890E679E090E7C072
:100EF800F07F647E0012167890E679E090E7C1F002
:100F08007F647E0012167890E679E090E7C2F07F61
:100F1800647E0012167890E679E090E7C3F090E6D8
:100F280078E04440F090E7C0E530F000000090E63B
:100F38008F7404F00000005391EF90E65FE04404E2
:100F4800F0D2AFD007D006D005D004D003D002D05D
:0E0F580001D000D0D0D082D083D0F0D0E032D3
:1011BD00C0E0C0F0C083C082C0D075D000C000C0F8
:0D11CD0001C002C003C004C005C006C00779
:1011DA00C2AF90E6A1E020E1F990E780E0FF700459
:1011EA00F5218025BFFF07752100D205801BE4FD8C
:1011FA007F9012159A90E782E0FD7F4212159A902D
:10120A00E781E0FD7F4E12159A00000090E68DE41A
:0D121A00F05391EF90E65FE04408F0D2AF92
:10122700D007D006D005D004D003D002D001D0001B
:0B123700D0D0D082D083D0F0D0E032C5
:0117A800320E
:0117A900320D
:0117AA00320C
:0117AB00320B
:0117AC00320A
:0117AD003209
:0117AE003208
:0117AF003207
:0117B0003206
:0117B1003205
:0117B2003204
:0117B3003203
:0117B4003202
:0117B5003201
:0117B6003200
:0117B70032FF
:0117B80032FE
:0117B90032FD
:0117BA0032FC
:0117BB0032FB
:0117BC0032FA
:0117BD0032F9
:0117BE0032F8
:0117BF0032F7
:0117C00032F6
:0117C10032F5
:0117C20032F4
:0117C30032F3
:0117C40032F2
:0117C50032F1
:10167800AD07AC06ED25E0FDEC33FCED4C6007ED65
:071688001D70011C80F5221A
:060F66008C1A8D1BA90787
:100F6C0075B6FF75B5FF53B07F53010753B1FE7FC4
:100F7C000A7E00121678E4FBFAC374029BFFE9A800
:100F8C0007088002C313D8FC30E00543B10280038C
:100F9C0053B1FD7F0A7E0012167843B10412167805
:100FAC0053B1FB1216780BBB00010AEB64034A70B9
:100FBC00C8E4FAFBC374099BFFE51BAE1AA807082B
:100FCC008005CEC313CE13D8F930E00543B10280AF
:100FDC000353B1FD7F0A7E0012167843B10412163A
:100FEC007853B1FB1216780BBB00010AEB640A4A6A
:100FFC0070C243B1017F0A7E0012167853B1FE1203
:02100C00167854
:01100E0022BF
:0A172100AD07AC06E4FF120F6622CC
:0A172B00AD07AC067F04120F662222
:0A173500AD07AC067F05120F662217
:0A173F00AD07AC067F06120F66220C
:0A174900AD07AC067F01120F662207
:0A175300AD07AC067F02120F6622FC
:0A175D00AD07AC067F03120F6622F1
:041136008F1DA9055B
:10113A00C2A27F017E00121678E4FBFAAF03E9A887
:10114A0007088002C313D8FC30E004D2A18002C28F
:10115A00A17F017E00121678D2A0121678C2A012C0
:10116A0016780BBB00010AEB64084A70CFE4FAFB5D
:10117A00AF03E51DA807088002C313D8FC30E004BA
:10118A00D2A18002C2A17F017E00121678D2A012DB
:10119A001678C2A01216780BBB00010AEB64084A43
:1011AA0070CEC2A2D2A27F017E00121678C2A2120B
:0211BA001678A5
:0111BC002210
:030DFD00C2A3226C
:03178F00D2A322C0
:03179200C28322ED
:03179500D28322DA
:0717800012178F12179522CA
:10162E00120DFD7F0A7E0012167812179212178F76
:0A163E001216781217951216782282
:10157000E4F51CF51DE4FBFA12162E0BBB00010A64
:10158000BA02F5BBA8F2051DE51D7002051CC39447
:0915900004E51C6480948040DC39
:01159900222F
:0C0080007D107C277F017E0012130D22F2
:0C16DF007D107C277F017E001212CC22BF
:10100F00E533B4010353B1DFE5317003120080E51E
:10101F0034706F752101902202E075F040A485F0C5
:10102F001CF51DAF217E00AC1CAD1D120DDAD3EFE8
:10103F009400EE940040117FEF7E03121242E51DE3
:10104F00151D7002151C80DB902203E0751C00F546
:10105F001DAF217E00AC1CAD1D120DDAD3EF940035
:10106F00EE940040117F007E01121242E51D151D06
:10107F007002151C80DB902204E0FF7E00121242EA
:10108F008009752101E521640160FAE531700312D1
:0A109F0016DFE533B4010343B1206E
:0110A9002224
:100B6C00753001121701C205E5317007E52F7003CE
:100B7C001216DFE5294528700312157012100F307C
:100B8C000503020C82753002E4F518F519C3E5195A
:100B9C009526E51895255029E4F51AF51BC3E51B98
:100BAC00952E7480F8651A98500D12162E051BE5BB
:100BBC001B7002051A80E60519E5197002051880EC
:100BCC00CCE532D394004005AF321215C3E4F518CE
:100BDC00F519C3E519953EE518953D5030C28130A5
:100BEC0080FDD281E4F51AF51BC3E51B952E7480AC
:100BFC00F8651A98500D12162E051BE51B70020590
:100C0C001A80E60519E5197002051880C5E4F51877
:100C1C00F519C3E5199526E51895255029E4F51A1B
:100C2C00F51BC3E51B952E7480F8651A98500D12B0
:100C3C00162E051BE51B7002051A80E60519E51931
:100C4C007002051880CCE536FD7F40121136E53771
:100C5C00FD7F20121136C2813080FDD281E52AFD44
:100C6C007F40121136E52BFD7F20121136E4F53052
:060C7C0012160E12170C07
:010C8200224F
:10159A00AB05AE0790E678E04480F090E679EEF08D
:1015AA007F647E00121678EBF012167890E678E0E7
:0915BA004440F07F64121678220F
:1012CC008C1E8D1FAB07AA06EB4A6034E5A0540FA9
:1012DC002460F5A0AF1FAE1E121678E5A0540F24A3
:1012EC00A0F5A0AF1FAE1E121678E5A0540F2480F7
:1012FC00F5A0AF1FAE1E121678EB1B70011A80C83A
:01130C0022BE
:10130D008C1E8D1FAB07AA06EB4A6034E5A0540F67
:10131D002480F5A0AF1FAE1E121678E5A0540F2441
:10132D0060F5A0AF1FAE1E121678E5A0540F245025
:10133D00F5A0AF1FAE1E121678EB1B70011A80C8F8
:01134D00227D
:10160E00E52FB40109E5A0540F2480F5A022E52FA3
:10161E00B40209E5A0540F2490F5A02253A00F2286
:0B16EB00E53554BFFD7F0112113622CF
:0B16F600E5354440FD7F011211362253
:0B170100E53554DFFD7F011211362298
:0B170C00E5354420FD7F01121136225C
:0417870053B17F22B9
:04178B0043B18022C4
:1014BE00E4F554F55512170C7F327E0012124212CB
:1014CE0017017F327E001212420555E55570020556
:0C14DE0054C39403E5546480948040D90A
:0114EA0022DF
:1014EB00E4F51AF51B1216F67F327E001212421229
:1014FB0016EB7F327E00121242051BE51B700205B4
:0C150B001AC39403E51A6480948040D950
:0115170022B1
:1015C3008F1C432704AD277F80121136E51C600B67
:1015D300C2813080FDD281151C80F15327FBAD27DA
:0615E3007F801211362288
:08177800E4F553D2E9D2AF22DF
:1013F30090E678E020E6F9C2E990E678E04480F0F0
:10140300EF25E090E679F090E678E030E0F990E6B9
:1014130078E04440F090E678E020E6F990E678E062
:0614230030E1D6D2E922FF
:10145D00A90790E678E020E6F9E553702390E67849
:10146D00E04480F0E925E090E679F08D4EAF03A9D8
:10147D0007754F018A508951E4F552755301D322F6
:02148D00C32278
:10142900A90790E678E020E6F9E553702590E6787B
:10143900E04480F0E925E0440190E679F08D4EAF73
:1014490003A907754F018A508951E4F55275530371
:04145900D322C322B5
:03004B00020C8321
:100C8300C0E0C083C082C085C084C086758600C0B2
:100C9300D075D000C000C001C002C003C006C007A9
:100CA30090E678E030E206755306020D6D90E67823
:100CB300E020E10CE55364026006755307020D6DF5
:100CC300E55324FE605F14603624FE7003020D5E5C
:100CD30024FC7003020D6A24086003020D6DAB4F00
:100CE300AA50A951AF5205528F82758300120D8B02
:100CF30090E679F0E552654E7070755305806B9000
:100D0300E679E0AB4FAA50A951AE528E82758300AB
:100D1300120DB8755302E54E6401704E90E678E00B
:100D23004420F08045E54E24FEB5520790E678E076
:100D33004420F0E54E14B5520A90E678E04440F0C2
:100D430075530090E679E0AB4FAA50A951AE528E8D
:100D530082758300120DB80552800F90E678E04447
:100D630040F075530080037553005391DFD007D0D3
:100D730006D003D002D001D000D0D0D086D084D00A
:080D830085D082D083D0E0325C
:030000000210AA41
:0C10AA00787FE4F6D8FD7581550210F146
:100D8B00BB010CE58229F582E5833AF583E022501D
:100D9B0006E92582F8E622BBFE06E92582F8E22267
:0D0DAB00E58229F582E5833AF583E4932281
:100DB800F8BB010DE58229F582E5833AF583E8F071
:100DC800225006E92582C8F622BBFE05E92582C81D
:020DD800F22205
:100DDA00EF8DF0A4A8F0CF8CF0A428CE8DF0A42E2D
:020DEA00FE22E7
:100DEC00EB9FF5F0EA9E42F0E99D42F0E89C45F05D
:010DFC0022D4
:1010B60002084BE493A3F8E493A34003F68001F2FD
:1010C60008DFF48029E493A3F85407240CC8C3333B
:1010D600C4540F4420C8834004F456800146F6DF0A
:1010E600E4800B0102040810204080901288E47E00
:1010F600019360BCA3FF543F30E509541FFEE493FF
:10110600A360010ECF54C025E060A840B8E493A3C5
:10111600FAE493A3F8E493A3C8C582C8CAC583CAF0
:10112600F0A3C8C582C8CAC583CADFE9DEE780BEA8
:0112CB000022
:00000001FF

